{
  "contractName": "GridStation",
  "abi": [
    {
      "inputs": [],
      "stateMutability": "payable",
      "type": "constructor",
      "payable": true
    },
    {
      "inputs": [],
      "name": "buyUnitsFromGridPrice",
      "outputs": [
        {
          "internalType": "uint256",
          "name": "",
          "type": "uint256"
        }
      ],
      "stateMutability": "view",
      "type": "function",
      "constant": true
    },
    {
      "inputs": [],
      "name": "gridStationAddress",
      "outputs": [
        {
          "internalType": "address",
          "name": "",
          "type": "address"
        }
      ],
      "stateMutability": "view",
      "type": "function",
      "constant": true
    },
    {
      "inputs": [
        {
          "internalType": "address",
          "name": "",
          "type": "address"
        }
      ],
      "name": "houseRecords",
      "outputs": [
        {
          "internalType": "uint256",
          "name": "totalUnitsSold",
          "type": "uint256"
        },
        {
          "internalType": "uint256",
          "name": "unitsSoldButNotPaid",
          "type": "uint256"
        }
      ],
      "stateMutability": "view",
      "type": "function",
      "constant": true
    },
    {
      "inputs": [],
      "name": "sellUnitsToGridPrice",
      "outputs": [
        {
          "internalType": "uint256",
          "name": "",
          "type": "uint256"
        }
      ],
      "stateMutability": "view",
      "type": "function",
      "constant": true
    },
    {
      "inputs": [],
      "name": "totalBoughtFromGrid",
      "outputs": [
        {
          "internalType": "uint256",
          "name": "",
          "type": "uint256"
        }
      ],
      "stateMutability": "view",
      "type": "function",
      "constant": true
    },
    {
      "inputs": [],
      "name": "totalSoldToGrid",
      "outputs": [
        {
          "internalType": "uint256",
          "name": "",
          "type": "uint256"
        }
      ],
      "stateMutability": "view",
      "type": "function",
      "constant": true
    },
    {
      "stateMutability": "payable",
      "type": "receive",
      "payable": true
    },
    {
      "inputs": [
        {
          "internalType": "uint256",
          "name": "_units",
          "type": "uint256"
        }
      ],
      "name": "sellUnitsToGrid",
      "outputs": [],
      "stateMutability": "payable",
      "type": "function",
      "payable": true
    },
    {
      "inputs": [
        {
          "internalType": "uint256",
          "name": "_units",
          "type": "uint256"
        }
      ],
      "name": "buyUnitsFromGrid",
      "outputs": [],
      "stateMutability": "payable",
      "type": "function",
      "payable": true
    }
  ],
  "bytecode": "0x60806040526108e7806100115f395ff3fe60806040526004361061007e575f3560e01c80637722892e1161004d5780637722892e14610115578063788d69c51461013f578063b02b762d14610169578063d5a703621461019357610085565b806304acd9ad146100895780630bf282b1146100a557806322a7f048146100c157806371a09b55146100eb57610085565b3661008557005b5f80fd5b6100a3600480360381019061009e91906105b0565b6101d0565b005b6100bf60048036038101906100ba91906105b0565b610343565b005b3480156100cc575f80fd5b506100d561042e565b6040516100e291906105ea565b60405180910390f35b3480156100f6575f80fd5b506100ff610434565b60405161010c91906105ea565b60405180910390f35b348015610120575f80fd5b5061012961043a565b6040516101369190610642565b60405180910390f35b34801561014a575f80fd5b5061015361045d565b60405161016091906105ea565b60405180910390f35b348015610174575f80fd5b5061017d610469565b60405161018a91906105ea565b60405180910390f35b34801561019e575f80fd5b506101b960048036038101906101b49190610685565b610475565b6040516101c79291906106b0565b60405180910390f35b5f670de0b6b3a7640000826101e59190610704565b90508047101561022a576040517f08c379a0000000000000000000000000000000000000000000000000000000008152600401610221906107c5565b60405180910390fd5b8160015f82825461023b91906107e3565b925050819055508160035f3373ffffffffffffffffffffffffffffffffffffffff1673ffffffffffffffffffffffffffffffffffffffff1681526020019081526020015f205f015f82825461029091906107e3565b925050819055508160035f3373ffffffffffffffffffffffffffffffffffffffff1673ffffffffffffffffffffffffffffffffffffffff1681526020019081526020015f206001015f8282546102e691906107e3565b92505081905550601460035f3373ffffffffffffffffffffffffffffffffffffffff1673ffffffffffffffffffffffffffffffffffffffff1681526020019081526020015f20600101541061033f5761033e33610495565b5b5050565b5f671bc16d674ec80000826103589190610704565b90508034101561039d576040517f08c379a000000000000000000000000000000000000000000000000000000000815260040161039490610860565b60405180910390fd5b8160015f8282546103ae919061087e565b925050819055508160025f8282546103c691906107e3565b925050819055505f81346103da919061087e565b90505f811115610429573373ffffffffffffffffffffffffffffffffffffffff166108fc8290811502906040515f60405180830381858888f19350505050158015610427573d5f803e3d5ffd5b505b505050565b60025481565b60015481565b5f8054906101000a900473ffffffffffffffffffffffffffffffffffffffff1681565b671bc16d674ec8000081565b670de0b6b3a764000081565b6003602052805f5260405f205f91509050805f0154908060010154905082565b5f670de0b6b3a764000060035f8473ffffffffffffffffffffffffffffffffffffffff1673ffffffffffffffffffffffffffffffffffffffff1681526020019081526020015f20600101546104ea9190610704565b90508173ffffffffffffffffffffffffffffffffffffffff166108fc8290811502906040515f60405180830381858888f1935050505015801561052f573d5f803e3d5ffd5b505f60035f8473ffffffffffffffffffffffffffffffffffffffff1673ffffffffffffffffffffffffffffffffffffffff1681526020019081526020015f20600101819055505050565b5f80fd5b5f819050919050565b61058f8161057d565b8114610599575f80fd5b50565b5f813590506105aa81610586565b92915050565b5f602082840312156105c5576105c4610579565b5b5f6105d28482850161059c565b91505092915050565b6105e48161057d565b82525050565b5f6020820190506105fd5f8301846105db565b92915050565b5f73ffffffffffffffffffffffffffffffffffffffff82169050919050565b5f61062c82610603565b9050919050565b61063c81610622565b82525050565b5f6020820190506106555f830184610633565b92915050565b61066481610622565b811461066e575f80fd5b50565b5f8135905061067f8161065b565b92915050565b5f6020828403121561069a57610699610579565b5b5f6106a784828501610671565b91505092915050565b5f6040820190506106c35f8301856105db565b6106d060208301846105db565b9392505050565b7f4e487b71000000000000000000000000000000000000000000000000000000005f52601160045260245ffd5b5f61070e8261057d565b91506107198361057d565b92508282026107278161057d565b9150828204841483151761073e5761073d6106d7565b5b5092915050565b5f82825260208201905092915050565b7f477269642073746174696f6e20646f6573206e6f74206861766520656e6f75675f8201527f682066756e647300000000000000000000000000000000000000000000000000602082015250565b5f6107af602783610745565b91506107ba82610755565b604082019050919050565b5f6020820190508181035f8301526107dc816107a3565b9050919050565b5f6107ed8261057d565b91506107f88361057d565b92508282019050808211156108105761080f6106d7565b5b92915050565b7f496e73756666696369656e74207061796d656e740000000000000000000000005f82015250565b5f61084a601483610745565b915061085582610816565b602082019050919050565b5f6020820190508181035f8301526108778161083e565b9050919050565b5f6108888261057d565b91506108938361057d565b92508282039050818111156108ab576108aa6106d7565b5b9291505056fea2646970667358221220a3dff20c6a9c672946729efa780674230144deab1155f0edd066a909823ad0fb64736f6c63430008150033",
  "immutableReferences": {},
  "source": "// SPDX-License-Identifier: MIT\r\npragma solidity ^0.8.0;\r\n\r\ncontract GridStation {\r\n    address public gridStationAddress;\r\n    uint256 public totalSoldToGrid;\r\n    uint256 public totalBoughtFromGrid;\r\n\r\n    uint256 public constant sellUnitsToGridPrice = 1000000000000000000 wei; // per unit\r\n    uint256 public constant buyUnitsFromGridPrice = 2000000000000000000 wei; // per unit\r\n    constructor() payable {}\r\n\r\n    struct HouseRecord {\r\n        uint256 totalUnitsSold;\r\n        uint256 unitsSoldButNotPaid;\r\n    }\r\n\r\n    receive() external payable {}\r\n\r\n    mapping(address => HouseRecord) public houseRecords;\r\n\r\n    function sellUnitsToGrid(uint256 _units) external payable {\r\n        uint256 amountToPay = _units * sellUnitsToGridPrice;\r\n        require(\r\n            address(this).balance >= amountToPay,\r\n            \"Grid station does not have enough funds\"\r\n        );\r\n\r\n        totalSoldToGrid += _units;\r\n        houseRecords[msg.sender].totalUnitsSold += _units;\r\n        houseRecords[msg.sender].unitsSoldButNotPaid += _units;\r\n        if (houseRecords[msg.sender].unitsSoldButNotPaid >= 20) {\r\n            payHouse(msg.sender);\r\n        }\r\n    }\r\n\r\n    function buyUnitsFromGrid(uint256 _units) external payable {\r\n        uint256 totalPrice = _units * buyUnitsFromGridPrice;\r\n        require(msg.value >= totalPrice, \"Insufficient payment\");\r\n\r\n        totalSoldToGrid -= _units;\r\n        totalBoughtFromGrid += _units;\r\n\r\n        // If there's excess ether sent by the caller, refund it\r\n        uint256 excessAmount = msg.value - totalPrice;\r\n        if (excessAmount > 0) {\r\n            payable(msg.sender).transfer(excessAmount);\r\n        }\r\n    }\r\n\r\n    function payHouse(address _houseOwner) private {\r\n        uint256 amountToPay = houseRecords[_houseOwner].unitsSoldButNotPaid *\r\n            sellUnitsToGridPrice;\r\n        payable(_houseOwner).transfer(amountToPay);\r\n        houseRecords[_houseOwner].unitsSoldButNotPaid = 0;\r\n    }\r\n}\r\n",
  "sourcePath": "D:\\Freelance\\energyproject\\backend\\contracts\\GridStation.sol",
  "compiler": {
    "name": "solc",
    "version": "0.8.21+commit.d9974bed.Emscripten.clang"
  },
  "schemaVersion": "3.4.16",
  "updatedAt": "2024-04-09T01:31:03.069Z",
  "networkType": "ethereum",
  "devdoc": {
    "kind": "dev",
    "methods": {},
    "version": 1
  },
  "userdoc": {
    "kind": "user",
    "methods": {},
    "version": 1
  }
}