{
  "contractName": "EnergyManagementSystem",
  "abi": [
    {
      "anonymous": false,
      "inputs": [
        {
          "indexed": true,
          "internalType": "address",
          "name": "from",
          "type": "address"
        },
        {
          "indexed": true,
          "internalType": "address",
          "name": "to",
          "type": "address"
        },
        {
          "indexed": false,
          "internalType": "uint256",
          "name": "units",
          "type": "uint256"
        }
      ],
      "name": "EnergyTransaction",
      "type": "event"
    },
    {
      "inputs": [],
      "name": "buyUnitsFromGridPrice",
      "outputs": [
        {
          "internalType": "uint256",
          "name": "",
          "type": "uint256"
        }
      ],
      "stateMutability": "view",
      "type": "function",
      "constant": true
    },
    {
      "inputs": [],
      "name": "houseCount",
      "outputs": [
        {
          "internalType": "uint256",
          "name": "",
          "type": "uint256"
        }
      ],
      "stateMutability": "view",
      "type": "function",
      "constant": true
    },
    {
      "inputs": [
        {
          "internalType": "address",
          "name": "",
          "type": "address"
        }
      ],
      "name": "houseRecords",
      "outputs": [
        {
          "internalType": "uint256",
          "name": "totalUnitsSold",
          "type": "uint256"
        },
        {
          "internalType": "uint256",
          "name": "unitsSoldButNotPaid",
          "type": "uint256"
        }
      ],
      "stateMutability": "view",
      "type": "function",
      "constant": true
    },
    {
      "inputs": [
        {
          "internalType": "uint256",
          "name": "",
          "type": "uint256"
        }
      ],
      "name": "houses",
      "outputs": [
        {
          "internalType": "string",
          "name": "houseName",
          "type": "string"
        },
        {
          "internalType": "string",
          "name": "houseAddress",
          "type": "string"
        },
        {
          "internalType": "uint256",
          "name": "houseId",
          "type": "uint256"
        },
        {
          "internalType": "uint256",
          "name": "energyProduction",
          "type": "uint256"
        },
        {
          "internalType": "uint256",
          "name": "energyConsumption",
          "type": "uint256"
        },
        {
          "internalType": "address",
          "name": "houseOwner",
          "type": "address"
        },
        {
          "internalType": "address",
          "name": "gridStation",
          "type": "address"
        },
        {
          "internalType": "uint256",
          "name": "boughtFromGrid",
          "type": "uint256"
        },
        {
          "internalType": "uint256",
          "name": "soldToGrid",
          "type": "uint256"
        }
      ],
      "stateMutability": "view",
      "type": "function",
      "constant": true
    },
    {
      "inputs": [],
      "name": "sellUnitsToGridPrice",
      "outputs": [
        {
          "internalType": "uint256",
          "name": "",
          "type": "uint256"
        }
      ],
      "stateMutability": "view",
      "type": "function",
      "constant": true
    },
    {
      "inputs": [],
      "name": "totalBoughtFromGrid",
      "outputs": [
        {
          "internalType": "uint256",
          "name": "",
          "type": "uint256"
        }
      ],
      "stateMutability": "view",
      "type": "function",
      "constant": true
    },
    {
      "inputs": [],
      "name": "totalSoldToGrid",
      "outputs": [
        {
          "internalType": "uint256",
          "name": "",
          "type": "uint256"
        }
      ],
      "stateMutability": "view",
      "type": "function",
      "constant": true
    },
    {
      "inputs": [
        {
          "internalType": "address",
          "name": "",
          "type": "address"
        }
      ],
      "name": "users",
      "outputs": [
        {
          "internalType": "string",
          "name": "username",
          "type": "string"
        },
        {
          "internalType": "address",
          "name": "userAddress",
          "type": "address"
        }
      ],
      "stateMutability": "view",
      "type": "function",
      "constant": true
    },
    {
      "stateMutability": "payable",
      "type": "receive",
      "payable": true
    },
    {
      "inputs": [
        {
          "internalType": "string",
          "name": "_username",
          "type": "string"
        }
      ],
      "name": "registerOwner",
      "outputs": [],
      "stateMutability": "nonpayable",
      "type": "function"
    },
    {
      "inputs": [
        {
          "internalType": "address",
          "name": "_userAddress",
          "type": "address"
        }
      ],
      "name": "isOwnerExist",
      "outputs": [
        {
          "internalType": "bool",
          "name": "",
          "type": "bool"
        }
      ],
      "stateMutability": "view",
      "type": "function",
      "constant": true
    },
    {
      "inputs": [
        {
          "internalType": "string",
          "name": "_houseName",
          "type": "string"
        },
        {
          "internalType": "string",
          "name": "_houseAddress",
          "type": "string"
        },
        {
          "internalType": "address",
          "name": "_gridStation",
          "type": "address"
        }
      ],
      "name": "addHouse",
      "outputs": [],
      "stateMutability": "nonpayable",
      "type": "function"
    },
    {
      "inputs": [],
      "name": "getAllHouses",
      "outputs": [
        {
          "components": [
            {
              "internalType": "string",
              "name": "houseName",
              "type": "string"
            },
            {
              "internalType": "string",
              "name": "houseAddress",
              "type": "string"
            },
            {
              "internalType": "uint256",
              "name": "houseId",
              "type": "uint256"
            },
            {
              "internalType": "uint256",
              "name": "energyProduction",
              "type": "uint256"
            },
            {
              "internalType": "uint256",
              "name": "energyConsumption",
              "type": "uint256"
            },
            {
              "internalType": "address",
              "name": "houseOwner",
              "type": "address"
            },
            {
              "internalType": "address",
              "name": "gridStation",
              "type": "address"
            },
            {
              "internalType": "uint256",
              "name": "boughtFromGrid",
              "type": "uint256"
            },
            {
              "internalType": "uint256",
              "name": "soldToGrid",
              "type": "uint256"
            }
          ],
          "internalType": "struct EnergyManagementSystem.HouseInfo[]",
          "name": "",
          "type": "tuple[]"
        }
      ],
      "stateMutability": "view",
      "type": "function",
      "constant": true
    },
    {
      "inputs": [
        {
          "internalType": "uint256",
          "name": "_houseId",
          "type": "uint256"
        }
      ],
      "name": "getHouseById",
      "outputs": [
        {
          "components": [
            {
              "internalType": "string",
              "name": "houseName",
              "type": "string"
            },
            {
              "internalType": "string",
              "name": "houseAddress",
              "type": "string"
            },
            {
              "internalType": "uint256",
              "name": "houseId",
              "type": "uint256"
            },
            {
              "internalType": "uint256",
              "name": "energyProduction",
              "type": "uint256"
            },
            {
              "internalType": "uint256",
              "name": "energyConsumption",
              "type": "uint256"
            },
            {
              "internalType": "address",
              "name": "houseOwner",
              "type": "address"
            },
            {
              "internalType": "address",
              "name": "gridStation",
              "type": "address"
            },
            {
              "internalType": "uint256",
              "name": "boughtFromGrid",
              "type": "uint256"
            },
            {
              "internalType": "uint256",
              "name": "soldToGrid",
              "type": "uint256"
            }
          ],
          "internalType": "struct EnergyManagementSystem.HouseInfo",
          "name": "",
          "type": "tuple"
        }
      ],
      "stateMutability": "view",
      "type": "function",
      "constant": true
    },
    {
      "inputs": [
        {
          "internalType": "uint256",
          "name": "_houseId",
          "type": "uint256"
        },
        {
          "internalType": "uint256",
          "name": "_newProduction",
          "type": "uint256"
        }
      ],
      "name": "updateEnergyProduction",
      "outputs": [],
      "stateMutability": "nonpayable",
      "type": "function"
    },
    {
      "inputs": [
        {
          "internalType": "uint256",
          "name": "_houseId",
          "type": "uint256"
        },
        {
          "internalType": "uint256",
          "name": "_newConsumption",
          "type": "uint256"
        }
      ],
      "name": "updateEnergyConsumption",
      "outputs": [],
      "stateMutability": "payable",
      "type": "function",
      "payable": true
    },
    {
      "inputs": [
        {
          "internalType": "uint256",
          "name": "_houseId",
          "type": "uint256"
        },
        {
          "internalType": "uint256",
          "name": "_units",
          "type": "uint256"
        }
      ],
      "name": "buyFromGrid",
      "outputs": [],
      "stateMutability": "payable",
      "type": "function",
      "payable": true
    },
    {
      "inputs": [
        {
          "internalType": "uint256",
          "name": "_houseId",
          "type": "uint256"
        },
        {
          "internalType": "uint256",
          "name": "_units",
          "type": "uint256"
        }
      ],
      "name": "sellToGrid",
      "outputs": [],
      "stateMutability": "nonpayable",
      "type": "function"
    }
  ],
  "bytecode": "0x60806040525f600555348015610013575f80fd5b50612844806100215f395ff3fe608060405260043610610101575f3560e01c8063a87430ba11610094578063d5a7036211610063578063d5a703621461034f578063d6b4917d1461038c578063d87deea8146103a8578063dbf6cb99146103d2578063face4274146103ee57610108565b8063a87430ba1461027a578063aeda852f146102b7578063b02b762d146102fb578063bd74f8b11461032557610108565b806377062b0c116100d057806377062b0c146101c457806377e2a74214610200578063788d69c5146102285780638ca96de71461025257610108565b806314ac7bbc1461010c57806315c122e01461013457806322a7f0481461017057806371a09b551461019a57610108565b3661010857005b5f80fd5b348015610117575f80fd5b50610132600480360381019061012d9190611aa4565b610416565b005b34801561013f575f80fd5b5061015a60048036038101906101559190611b5f565b61059f565b6040516101679190611ceb565b60405180910390f35b34801561017b575f80fd5b506101846107c6565b6040516101919190611d1a565b60405180910390f35b3480156101a5575f80fd5b506101ae6107cc565b6040516101bb9190611d1a565b60405180910390f35b3480156101cf575f80fd5b506101ea60048036038101906101e59190611d33565b6107d1565b6040516101f79190611d78565b60405180910390f35b34801561020b575f80fd5b5061022660048036038101906102219190611d91565b610868565b005b348015610233575f80fd5b5061023c610a34565b6040516102499190611d1a565b60405180910390f35b34801561025d575f80fd5b5061027860048036038101906102739190611dcf565b610a39565b005b348015610285575f80fd5b506102a0600480360381019061029b9190611d33565b610b4a565b6040516102ae929190611e6d565b60405180910390f35b3480156102c2575f80fd5b506102dd60048036038101906102d89190611b5f565b610c0f565b6040516102f299989796959493929190611e9b565b60405180910390f35b348015610306575f80fd5b5061030f610da3565b60405161031c9190611d1a565b60405180910390f35b348015610330575f80fd5b50610339610da8565b6040516103469190611d1a565b60405180910390f35b34801561035a575f80fd5b5061037560048036038101906103709190611d33565b610dae565b604051610383929190611f34565b60405180910390f35b6103a660048036038101906103a19190611d91565b610dce565b005b3480156103b3575f80fd5b506103bc610f9a565b6040516103c991906120df565b60405180910390f35b6103ec60048036038101906103e79190611d91565b611261565b005b3480156103f9575f80fd5b50610414600480360381019061040f9190611d91565b6114c8565b005b60055f8154809291906104289061212c565b919050555060405180610120016040528084815260200183815260200160055481526020015f81526020015f81526020013373ffffffffffffffffffffffffffffffffffffffff1681526020018273ffffffffffffffffffffffffffffffffffffffff1681526020015f81526020015f81525060035f60055481526020019081526020015f205f820151815f0190816104c1919061236d565b5060208201518160010190816104d7919061236d565b5060408201518160020155606082015181600301556080820151816004015560a0820151816005015f6101000a81548173ffffffffffffffffffffffffffffffffffffffff021916908373ffffffffffffffffffffffffffffffffffffffff16021790555060c0820151816006015f6101000a81548173ffffffffffffffffffffffffffffffffffffffff021916908373ffffffffffffffffffffffffffffffffffffffff16021790555060e082015181600701556101008201518160080155905050505050565b6105a761188c565b60035f8381526020019081526020015f20604051806101200160405290815f820180546105d3906121a0565b80601f01602080910402602001604051908101604052809291908181526020018280546105ff906121a0565b801561064a5780601f106106215761010080835404028352916020019161064a565b820191905f5260205f20905b81548152906001019060200180831161062d57829003601f168201915b50505050508152602001600182018054610663906121a0565b80601f016020809104026020016040519081016040528092919081815260200182805461068f906121a0565b80156106da5780601f106106b1576101008083540402835291602001916106da565b820191905f5260205f20905b8154815290600101906020018083116106bd57829003601f168201915b50505050508152602001600282015481526020016003820154815260200160048201548152602001600582015f9054906101000a900473ffffffffffffffffffffffffffffffffffffffff1673ffffffffffffffffffffffffffffffffffffffff1673ffffffffffffffffffffffffffffffffffffffff168152602001600682015f9054906101000a900473ffffffffffffffffffffffffffffffffffffffff1673ffffffffffffffffffffffffffffffffffffffff1673ffffffffffffffffffffffffffffffffffffffff168152602001600782015481526020016008820154815250509050919050565b60015481565b5f5481565b5f8073ffffffffffffffffffffffffffffffffffffffff1660045f8473ffffffffffffffffffffffffffffffffffffffff1673ffffffffffffffffffffffffffffffffffffffff1681526020019081526020015f206001015f9054906101000a900473ffffffffffffffffffffffffffffffffffffffff1673ffffffffffffffffffffffffffffffffffffffff1614159050919050565b6005548211156108ad576040517f08c379a00000000000000000000000000000000000000000000000000000000081526004016108a490612486565b60405180910390fd5b8060035f8481526020019081526020015f206003018190555060035f8381526020019081526020015f206003015460035f8481526020019081526020015f20600401541115610995576109338260035f8581526020019081526020015f206003015460035f8681526020019081526020015f206004015461092e91906124a4565b611261565b60035f8381526020019081526020015f206003015460035f8481526020019081526020015f206004015461096791906124a4565b60035f8481526020019081526020015f206007015f82825461098991906124d7565b92505081905550610a30565b6109d28260035f8581526020019081526020015f206004015460035f8681526020019081526020015f20600301546109cd91906124a4565b6114c8565b60035f8381526020019081526020015f206004015460035f8481526020019081526020015f2060030154610a0691906124a4565b60035f8481526020019081526020015f206007015f828254610a2891906124d7565b925050819055505b5050565b600f81565b610a42336107d1565b15610a82576040517f08c379a0000000000000000000000000000000000000000000000000000000008152600401610a7990612554565b60405180910390fd5b60405180604001604052808281526020013373ffffffffffffffffffffffffffffffffffffffff1681525060045f3373ffffffffffffffffffffffffffffffffffffffff1673ffffffffffffffffffffffffffffffffffffffff1681526020019081526020015f205f820151815f019081610afd919061236d565b506020820151816001015f6101000a81548173ffffffffffffffffffffffffffffffffffffffff021916908373ffffffffffffffffffffffffffffffffffffffff16021790555090505050565b6004602052805f5260405f205f91509050805f018054610b69906121a0565b80601f0160208091040260200160405190810160405280929190818152602001828054610b95906121a0565b8015610be05780601f10610bb757610100808354040283529160200191610be0565b820191905f5260205f20905b815481529060010190602001808311610bc357829003601f168201915b505050505090806001015f9054906101000a900473ffffffffffffffffffffffffffffffffffffffff16905082565b6003602052805f5260405f205f91509050805f018054610c2e906121a0565b80601f0160208091040260200160405190810160405280929190818152602001828054610c5a906121a0565b8015610ca55780601f10610c7c57610100808354040283529160200191610ca5565b820191905f5260205f20905b815481529060010190602001808311610c8857829003601f168201915b505050505090806001018054610cba906121a0565b80601f0160208091040260200160405190810160405280929190818152602001828054610ce6906121a0565b8015610d315780601f10610d0857610100808354040283529160200191610d31565b820191905f5260205f20905b815481529060010190602001808311610d1457829003601f168201915b505050505090806002015490806003015490806004015490806005015f9054906101000a900473ffffffffffffffffffffffffffffffffffffffff1690806006015f9054906101000a900473ffffffffffffffffffffffffffffffffffffffff16908060070154908060080154905089565b600a81565b60055481565b6002602052805f5260405f205f91509050805f0154908060010154905082565b600554821115610e13576040517f08c379a0000000000000000000000000000000000000000000000000000000008152600401610e0a90612486565b60405180910390fd5b8060035f8481526020019081526020015f206004018190555060035f8381526020019081526020015f206003015460035f8481526020019081526020015f20600401541115610efb57610e998260035f8581526020019081526020015f206003015460035f8681526020019081526020015f2060040154610e9491906124a4565b611261565b60035f8381526020019081526020015f206003015460035f8481526020019081526020015f2060040154610ecd91906124a4565b60035f8481526020019081526020015f206007015f828254610eef91906124d7565b92505081905550610f96565b610f388260035f8581526020019081526020015f206004015460035f8681526020019081526020015f2060030154610f3391906124a4565b6114c8565b60035f8381526020019081526020015f206004015460035f8481526020019081526020015f2060030154610f6c91906124a4565b60035f8481526020019081526020015f206007015f828254610f8e91906124d7565b925050819055505b5050565b60605f60055467ffffffffffffffff811115610fb957610fb8611926565b5b604051908082528060200260200182016040528015610ff257816020015b610fdf61188c565b815260200190600190039081610fd75790505b5090505f600190505b60055481116112595760035f8281526020019081526020015f20604051806101200160405290815f82018054611030906121a0565b80601f016020809104026020016040519081016040528092919081815260200182805461105c906121a0565b80156110a75780601f1061107e576101008083540402835291602001916110a7565b820191905f5260205f20905b81548152906001019060200180831161108a57829003601f168201915b505050505081526020016001820180546110c0906121a0565b80601f01602080910402602001604051908101604052809291908181526020018280546110ec906121a0565b80156111375780601f1061110e57610100808354040283529160200191611137565b820191905f5260205f20905b81548152906001019060200180831161111a57829003601f168201915b50505050508152602001600282015481526020016003820154815260200160048201548152602001600582015f9054906101000a900473ffffffffffffffffffffffffffffffffffffffff1673ffffffffffffffffffffffffffffffffffffffff1673ffffffffffffffffffffffffffffffffffffffff168152602001600682015f9054906101000a900473ffffffffffffffffffffffffffffffffffffffff1673ffffffffffffffffffffffffffffffffffffffff1673ffffffffffffffffffffffffffffffffffffffff168152602001600782015481526020016008820154815250508260018361122a91906124a4565b8151811061123b5761123a612572565b5b602002602001018190525080806112519061212c565b915050610ffb565b508091505090565b5f81116112a3576040517f08c379a000000000000000000000000000000000000000000000000000000000815260040161129a906125e9565b60405180910390fd5b5f73ffffffffffffffffffffffffffffffffffffffff1660035f8481526020019081526020015f206006015f9054906101000a900473ffffffffffffffffffffffffffffffffffffffff1673ffffffffffffffffffffffffffffffffffffffff1603611344576040517f08c379a000000000000000000000000000000000000000000000000000000000815260040161133b90612651565b60405180910390fd5b5f60035f8481526020019081526020015f206006015f9054906101000a900473ffffffffffffffffffffffffffffffffffffffff1690505f600f83611389919061266f565b9050803410156113ce576040517f08c379a00000000000000000000000000000000000000000000000000000000081526004016113c5906126fa565b60405180910390fd5b8260015f8282546113df91906124d7565b925050819055508173ffffffffffffffffffffffffffffffffffffffff166108fc3490811502906040515f60405180830381858888f19350505050158015611429573d5f803e3d5ffd5b5060035f8581526020019081526020015f206006015f9054906101000a900473ffffffffffffffffffffffffffffffffffffffff1673ffffffffffffffffffffffffffffffffffffffff163373ffffffffffffffffffffffffffffffffffffffff167fdaa91170aa5a72a4eaf8c0a5a517f746870d5f9a0593541e59913311d04139c2856040516114ba9190611d1a565b60405180910390a350505050565b5f811161150a576040517f08c379a000000000000000000000000000000000000000000000000000000000815260040161150190612762565b60405180910390fd5b5f73ffffffffffffffffffffffffffffffffffffffff1660035f8481526020019081526020015f206006015f9054906101000a900473ffffffffffffffffffffffffffffffffffffffff1673ffffffffffffffffffffffffffffffffffffffff16036115ab576040517f08c379a00000000000000000000000000000000000000000000000000000000081526004016115a290612651565b60405180910390fd5b5f600a826115b9919061266f565b9050804710156115fe576040517f08c379a00000000000000000000000000000000000000000000000000000000081526004016115f5906127f0565b60405180910390fd5b815f8082825461160e91906124d7565b925050819055508160025f3373ffffffffffffffffffffffffffffffffffffffff1673ffffffffffffffffffffffffffffffffffffffff1681526020019081526020015f205f015f82825461166391906124d7565b925050819055508160025f3373ffffffffffffffffffffffffffffffffffffffff1673ffffffffffffffffffffffffffffffffffffffff1681526020019081526020015f206001015f8282546116b991906124d7565b92505081905550601460025f3373ffffffffffffffffffffffffffffffffffffffff1673ffffffffffffffffffffffffffffffffffffffff1681526020019081526020015f20600101541061171257611711336117af565b5b60035f8481526020019081526020015f206006015f9054906101000a900473ffffffffffffffffffffffffffffffffffffffff1673ffffffffffffffffffffffffffffffffffffffff163373ffffffffffffffffffffffffffffffffffffffff167fdaa91170aa5a72a4eaf8c0a5a517f746870d5f9a0593541e59913311d04139c2846040516117a29190611d1a565b60405180910390a3505050565b5f600a60025f8473ffffffffffffffffffffffffffffffffffffffff1673ffffffffffffffffffffffffffffffffffffffff1681526020019081526020015f20600101546117fd919061266f565b90508173ffffffffffffffffffffffffffffffffffffffff166108fc8290811502906040515f60405180830381858888f19350505050158015611842573d5f803e3d5ffd5b505f60025f8473ffffffffffffffffffffffffffffffffffffffff1673ffffffffffffffffffffffffffffffffffffffff1681526020019081526020015f20600101819055505050565b60405180610120016040528060608152602001606081526020015f81526020015f81526020015f81526020015f73ffffffffffffffffffffffffffffffffffffffff1681526020015f73ffffffffffffffffffffffffffffffffffffffff1681526020015f81526020015f81525090565b5f604051905090565b5f80fd5b5f80fd5b5f80fd5b5f80fd5b5f601f19601f8301169050919050565b7f4e487b71000000000000000000000000000000000000000000000000000000005f52604160045260245ffd5b61195c82611916565b810181811067ffffffffffffffff8211171561197b5761197a611926565b5b80604052505050565b5f61198d6118fd565b90506119998282611953565b919050565b5f67ffffffffffffffff8211156119b8576119b7611926565b5b6119c182611916565b9050602081019050919050565b828183375f83830152505050565b5f6119ee6119e98461199e565b611984565b905082815260208101848484011115611a0a57611a09611912565b5b611a158482856119ce565b509392505050565b5f82601f830112611a3157611a3061190e565b5b8135611a418482602086016119dc565b91505092915050565b5f73ffffffffffffffffffffffffffffffffffffffff82169050919050565b5f611a7382611a4a565b9050919050565b611a8381611a69565b8114611a8d575f80fd5b50565b5f81359050611a9e81611a7a565b92915050565b5f805f60608486031215611abb57611aba611906565b5b5f84013567ffffffffffffffff811115611ad857611ad761190a565b5b611ae486828701611a1d565b935050602084013567ffffffffffffffff811115611b0557611b0461190a565b5b611b1186828701611a1d565b9250506040611b2286828701611a90565b9150509250925092565b5f819050919050565b611b3e81611b2c565b8114611b48575f80fd5b50565b5f81359050611b5981611b35565b92915050565b5f60208284031215611b7457611b73611906565b5b5f611b8184828501611b4b565b91505092915050565b5f81519050919050565b5f82825260208201905092915050565b5f5b83811015611bc1578082015181840152602081019050611ba6565b5f8484015250505050565b5f611bd682611b8a565b611be08185611b94565b9350611bf0818560208601611ba4565b611bf981611916565b840191505092915050565b611c0d81611b2c565b82525050565b611c1c81611a69565b82525050565b5f61012083015f8301518482035f860152611c3d8282611bcc565b91505060208301518482036020860152611c578282611bcc565b9150506040830151611c6c6040860182611c04565b506060830151611c7f6060860182611c04565b506080830151611c926080860182611c04565b5060a0830151611ca560a0860182611c13565b5060c0830151611cb860c0860182611c13565b5060e0830151611ccb60e0860182611c04565b50610100830151611ce0610100860182611c04565b508091505092915050565b5f6020820190508181035f830152611d038184611c22565b905092915050565b611d1481611b2c565b82525050565b5f602082019050611d2d5f830184611d0b565b92915050565b5f60208284031215611d4857611d47611906565b5b5f611d5584828501611a90565b91505092915050565b5f8115159050919050565b611d7281611d5e565b82525050565b5f602082019050611d8b5f830184611d69565b92915050565b5f8060408385031215611da757611da6611906565b5b5f611db485828601611b4b565b9250506020611dc585828601611b4b565b9150509250929050565b5f60208284031215611de457611de3611906565b5b5f82013567ffffffffffffffff811115611e0157611e0061190a565b5b611e0d84828501611a1d565b91505092915050565b5f82825260208201905092915050565b5f611e3082611b8a565b611e3a8185611e16565b9350611e4a818560208601611ba4565b611e5381611916565b840191505092915050565b611e6781611a69565b82525050565b5f6040820190508181035f830152611e858185611e26565b9050611e946020830184611e5e565b9392505050565b5f610120820190508181035f830152611eb4818c611e26565b90508181036020830152611ec8818b611e26565b9050611ed7604083018a611d0b565b611ee46060830189611d0b565b611ef16080830188611d0b565b611efe60a0830187611e5e565b611f0b60c0830186611e5e565b611f1860e0830185611d0b565b611f26610100830184611d0b565b9a9950505050505050505050565b5f604082019050611f475f830185611d0b565b611f546020830184611d0b565b9392505050565b5f81519050919050565b5f82825260208201905092915050565b5f819050602082019050919050565b5f61012083015f8301518482035f860152611f9f8282611bcc565b91505060208301518482036020860152611fb98282611bcc565b9150506040830151611fce6040860182611c04565b506060830151611fe16060860182611c04565b506080830151611ff46080860182611c04565b5060a083015161200760a0860182611c13565b5060c083015161201a60c0860182611c13565b5060e083015161202d60e0860182611c04565b50610100830151612042610100860182611c04565b508091505092915050565b5f6120588383611f84565b905092915050565b5f602082019050919050565b5f61207682611f5b565b6120808185611f65565b93508360208202850161209285611f75565b805f5b858110156120cd57848403895281516120ae858261204d565b94506120b983612060565b925060208a01995050600181019050612095565b50829750879550505050505092915050565b5f6020820190508181035f8301526120f7818461206c565b905092915050565b7f4e487b71000000000000000000000000000000000000000000000000000000005f52601160045260245ffd5b5f61213682611b2c565b91507fffffffffffffffffffffffffffffffffffffffffffffffffffffffffffffffff8203612168576121676120ff565b5b600182019050919050565b7f4e487b71000000000000000000000000000000000000000000000000000000005f52602260045260245ffd5b5f60028204905060018216806121b757607f821691505b6020821081036121ca576121c9612173565b5b50919050565b5f819050815f5260205f209050919050565b5f6020601f8301049050919050565b5f82821b905092915050565b5f6008830261222c7fffffffffffffffffffffffffffffffffffffffffffffffffffffffffffffffff826121f1565b61223686836121f1565b95508019841693508086168417925050509392505050565b5f819050919050565b5f61227161226c61226784611b2c565b61224e565b611b2c565b9050919050565b5f819050919050565b61228a83612257565b61229e61229682612278565b8484546121fd565b825550505050565b5f90565b6122b26122a6565b6122bd818484612281565b505050565b5b818110156122e0576122d55f826122aa565b6001810190506122c3565b5050565b601f821115612325576122f6816121d0565b6122ff846121e2565b8101602085101561230e578190505b61232261231a856121e2565b8301826122c2565b50505b505050565b5f82821c905092915050565b5f6123455f198460080261232a565b1980831691505092915050565b5f61235d8383612336565b9150826002028217905092915050565b61237682611b8a565b67ffffffffffffffff81111561238f5761238e611926565b5b61239982546121a0565b6123a48282856122e4565b5f60209050601f8311600181146123d5575f84156123c3578287015190505b6123cd8582612352565b865550612434565b601f1984166123e3866121d0565b5f5b8281101561240a578489015182556001820191506020850194506020810190506123e5565b868310156124275784890151612423601f891682612336565b8355505b6001600288020188555050505b505050505050565b7f496e76616c696420486f757365204944000000000000000000000000000000005f82015250565b5f612470601083611e16565b915061247b8261243c565b602082019050919050565b5f6020820190508181035f83015261249d81612464565b9050919050565b5f6124ae82611b2c565b91506124b983611b2c565b92508282039050818111156124d1576124d06120ff565b5b92915050565b5f6124e182611b2c565b91506124ec83611b2c565b9250828201905080821115612504576125036120ff565b5b92915050565b7f5573657220616c726561647920657869737473000000000000000000000000005f82015250565b5f61253e601383611e16565b91506125498261250a565b602082019050919050565b5f6020820190508181035f83015261256b81612532565b9050919050565b7f4e487b71000000000000000000000000000000000000000000000000000000005f52603260045260245ffd5b7f496e76616c696420756e69747320746f206275790000000000000000000000005f82015250565b5f6125d3601483611e16565b91506125de8261259f565b602082019050919050565b5f6020820190508181035f830152612600816125c7565b9050919050565b7f477269642073746174696f6e2061646472657373206e6f7420736574000000005f82015250565b5f61263b601c83611e16565b915061264682612607565b602082019050919050565b5f6020820190508181035f8301526126688161262f565b9050919050565b5f61267982611b2c565b915061268483611b2c565b925082820261269281611b2c565b915082820484148315176126a9576126a86120ff565b5b5092915050565b7f496e73756666696369656e74207061796d656e740000000000000000000000005f82015250565b5f6126e4601483611e16565b91506126ef826126b0565b602082019050919050565b5f6020820190508181035f830152612711816126d8565b9050919050565b7f496e76616c696420756e69747320746f2073656c6c00000000000000000000005f82015250565b5f61274c601583611e16565b915061275782612718565b602082019050919050565b5f6020820190508181035f83015261277981612740565b9050919050565b7f477269642073746174696f6e20646f6573206e6f74206861766520656e6f75675f8201527f682066756e647300000000000000000000000000000000000000000000000000602082015250565b5f6127da602783611e16565b91506127e582612780565b604082019050919050565b5f6020820190508181035f830152612807816127ce565b905091905056fea264697066735822122055006738b78792254c0c0612ee01570df70c958376e9ec7bf9b0b450c2534bdb64736f6c63430008150033",
  "immutableReferences": {},
  "source": "// SPDX-License-Identifier: MIT\r\npragma solidity ^0.8.0;\r\n\r\ncontract EnergyManagementSystem {\r\n    uint256 public totalSoldToGrid;\r\n    uint256 public totalBoughtFromGrid;\r\n\r\n    uint256 public constant sellUnitsToGridPrice = 10; // per unit\r\n    uint256 public constant buyUnitsFromGridPrice = 15; // per unit\r\n\r\n    struct HouseRecord {\r\n        uint256 totalUnitsSold;\r\n        uint256 unitsSoldButNotPaid;\r\n    }\r\n\r\n    struct HouseInfo {\r\n        string houseName;\r\n        string houseAddress;\r\n        uint256 houseId;\r\n        uint256 energyProduction;\r\n        uint256 energyConsumption;\r\n        address houseOwner;\r\n        address gridStation;\r\n        uint256 boughtFromGrid;\r\n        uint256 soldToGrid;\r\n    }\r\n\r\n    struct Owner {\r\n        string username;\r\n        address userAddress;\r\n    }\r\n\r\n    mapping(address => HouseRecord) public houseRecords;\r\n    mapping(uint256 => HouseInfo) public houses;\r\n    mapping(address => Owner) public users;\r\n\r\n    uint256 public houseCount = 0;\r\n\r\n    event EnergyTransaction(\r\n        address indexed from,\r\n        address indexed to,\r\n        uint256 units\r\n    );\r\n\r\n    receive() external payable {}\r\n\r\n    // Method to register a new user\r\n    function registerOwner(string memory _username) external {\r\n        require(!isOwnerExist(msg.sender), \"User already exists\");\r\n        users[msg.sender] = Owner(_username, msg.sender);\r\n    }\r\n\r\n    // Method to check if a user already exists\r\n    function isOwnerExist(address _userAddress) public view returns (bool) {\r\n        return users[_userAddress].userAddress != address(0);\r\n    }\r\n\r\n    // Method to add a new house\r\n    function addHouse(\r\n        string memory _houseName,\r\n        string memory _houseAddress,\r\n        address _gridStation\r\n    ) external {\r\n        houseCount++;\r\n        houses[houseCount] = HouseInfo(\r\n            _houseName,\r\n            _houseAddress,\r\n            houseCount,\r\n            0,\r\n            0,\r\n            msg.sender,\r\n            _gridStation,\r\n            0,\r\n            0\r\n        );\r\n    }\r\n\r\n    // Method to get all houses\r\n    function getAllHouses() external view returns (HouseInfo[] memory) {\r\n        HouseInfo[] memory allHouses = new HouseInfo[](houseCount);\r\n        for (uint256 i = 1; i <= houseCount; i++) {\r\n            allHouses[i - 1] = houses[i];\r\n        }\r\n        return allHouses;\r\n    }\r\n\r\n    // Method to get house by ID\r\n    function getHouseById(\r\n        uint256 _houseId\r\n    ) external view returns (HouseInfo memory) {\r\n        return houses[_houseId];\r\n    }\r\n\r\n    // Method to update energy production for a house\r\n    function updateEnergyProduction(\r\n        uint256 _houseId,\r\n        uint256 _newProduction\r\n    ) external {\r\n        require(_houseId <= houseCount, \"Invalid House ID\");\r\n        houses[_houseId].energyProduction = _newProduction;\r\n        if (\r\n            houses[_houseId].energyConsumption >\r\n            houses[_houseId].energyProduction\r\n        ) {\r\n            buyFromGrid(\r\n                _houseId,\r\n                houses[_houseId].energyConsumption -\r\n                    houses[_houseId].energyProduction\r\n            );\r\n            houses[_houseId].boughtFromGrid +=\r\n                houses[_houseId].energyConsumption -\r\n                houses[_houseId].energyProduction;\r\n        } else {\r\n            sellToGrid(\r\n                _houseId,\r\n                houses[_houseId].energyProduction -\r\n                    houses[_houseId].energyConsumption\r\n            );\r\n            houses[_houseId].boughtFromGrid +=\r\n                houses[_houseId].energyProduction -\r\n                houses[_houseId].energyConsumption;\r\n        }\r\n    }\r\n\r\n    // Method to update energy consumption for a house\r\n    function updateEnergyConsumption(\r\n        uint256 _houseId,\r\n        uint256 _newConsumption\r\n    ) external payable {\r\n        require(_houseId <= houseCount, \"Invalid House ID\");\r\n        houses[_houseId].energyConsumption = _newConsumption;\r\n        if (\r\n            houses[_houseId].energyConsumption >\r\n            houses[_houseId].energyProduction\r\n        ) {\r\n            buyFromGrid(\r\n                _houseId,\r\n                houses[_houseId].energyConsumption -\r\n                    houses[_houseId].energyProduction\r\n            );\r\n            houses[_houseId].boughtFromGrid +=\r\n                houses[_houseId].energyConsumption -\r\n                houses[_houseId].energyProduction;\r\n        } else {\r\n            sellToGrid(\r\n                _houseId,\r\n                houses[_houseId].energyProduction -\r\n                    houses[_houseId].energyConsumption\r\n            );\r\n            houses[_houseId].boughtFromGrid +=\r\n                houses[_houseId].energyProduction -\r\n                houses[_houseId].energyConsumption;\r\n        }\r\n    }\r\n\r\n    function buyFromGrid(uint256 _houseId, uint256 _units) public payable {\r\n        require(_units > 0, \"Invalid units to buy\");\r\n        require(\r\n            houses[_houseId].gridStation != address(0),\r\n            \"Grid station address not set\"\r\n        );\r\n        address payable gridStationAddr = payable(houses[_houseId].gridStation);\r\n        uint256 amount = _units * buyUnitsFromGridPrice;\r\n        require(msg.value >= amount, \"Insufficient payment\");\r\n        totalBoughtFromGrid += _units;\r\n        gridStationAddr.transfer(msg.value);\r\n        emit EnergyTransaction(\r\n            msg.sender,\r\n            houses[_houseId].gridStation,\r\n            _units\r\n        );\r\n    }\r\n\r\n    function sellToGrid(uint256 _houseId, uint256 _units) public {\r\n        require(_units > 0, \"Invalid units to sell\");\r\n        require(\r\n            houses[_houseId].gridStation != address(0),\r\n            \"Grid station address not set\"\r\n        );\r\n\r\n        uint256 amountToPay = _units * sellUnitsToGridPrice;\r\n        require(\r\n            address(this).balance >= amountToPay,\r\n            \"Grid station does not have enough funds\"\r\n        );\r\n\r\n        totalSoldToGrid += _units;\r\n        houseRecords[msg.sender].totalUnitsSold += _units;\r\n        houseRecords[msg.sender].unitsSoldButNotPaid += _units;\r\n        if (houseRecords[msg.sender].unitsSoldButNotPaid >= 20) {\r\n            payHouse(msg.sender);\r\n        }\r\n        emit EnergyTransaction(\r\n            msg.sender,\r\n            houses[_houseId].gridStation,\r\n            _units\r\n        );\r\n    }\r\n\r\n    function payHouse(address _houseOwner) private {\r\n        uint256 amountToPay = houseRecords[_houseOwner].unitsSoldButNotPaid *\r\n            sellUnitsToGridPrice;\r\n        payable(_houseOwner).transfer(amountToPay);\r\n        houseRecords[_houseOwner].unitsSoldButNotPaid = 0;\r\n    }\r\n}\r\n",
  "sourcePath": "D:\\BlockChain Projects\\deliverables\\House Energy Management\\energyhouse\\backend\\contracts\\EnergyManagementSystem.sol",
  "compiler": {
    "name": "solc",
    "version": "0.8.21+commit.d9974bed.Emscripten.clang"
  },
  "schemaVersion": "3.4.16",
  "updatedAt": "2024-04-15T12:02:03.750Z",
  "networkType": "ethereum",
  "devdoc": {
    "kind": "dev",
    "methods": {},
    "version": 1
  },
  "userdoc": {
    "kind": "user",
    "methods": {},
    "version": 1
  }
}