{
  "contractName": "HouseOwner",
  "abi": [
    {
      "inputs": [
        {
          "internalType": "address",
          "name": "",
          "type": "address"
        }
      ],
      "name": "users",
      "outputs": [
        {
          "internalType": "string",
          "name": "username",
          "type": "string"
        },
        {
          "internalType": "address",
          "name": "userAddress",
          "type": "address"
        }
      ],
      "stateMutability": "view",
      "type": "function",
      "constant": true
    },
    {
      "inputs": [
        {
          "internalType": "string",
          "name": "_username",
          "type": "string"
        }
      ],
      "name": "registerOwner",
      "outputs": [],
      "stateMutability": "nonpayable",
      "type": "function"
    },
    {
      "inputs": [
        {
          "internalType": "address",
          "name": "_userAddress",
          "type": "address"
        }
      ],
      "name": "isOwnerExist",
      "outputs": [
        {
          "internalType": "bool",
          "name": "",
          "type": "bool"
        }
      ],
      "stateMutability": "view",
      "type": "function",
      "constant": true
    },
    {
      "inputs": [
        {
          "internalType": "address",
          "name": "_userAddress",
          "type": "address"
        }
      ],
      "name": "getOwnerDetails",
      "outputs": [
        {
          "internalType": "string",
          "name": "",
          "type": "string"
        },
        {
          "internalType": "address",
          "name": "",
          "type": "address"
        }
      ],
      "stateMutability": "view",
      "type": "function",
      "constant": true
    }
  ],
  "bytecode": "0x608060405234801561000f575f80fd5b50610bcd8061001d5f395ff3fe608060405234801561000f575f80fd5b506004361061004a575f3560e01c806377062b0c1461004e5780638ca96de71461007e578063a87430ba1461009a578063c3bb8121146100cb575b5f80fd5b6100686004803603810190610063919061055d565b6100fc565b60405161007591906105a2565b60405180910390f35b610098600480360381019061009391906106f7565b610192565b005b6100b460048036038101906100af919061055d565b6102a2565b6040516100c29291906107c7565b60405180910390f35b6100e560048036038101906100e0919061055d565b610366565b6040516100f39291906107c7565b60405180910390f35b5f8073ffffffffffffffffffffffffffffffffffffffff165f808473ffffffffffffffffffffffffffffffffffffffff1673ffffffffffffffffffffffffffffffffffffffff1681526020019081526020015f206001015f9054906101000a900473ffffffffffffffffffffffffffffffffffffffff1673ffffffffffffffffffffffffffffffffffffffff1614159050919050565b61019b336100fc565b156101db576040517f08c379a00000000000000000000000000000000000000000000000000000000081526004016101d29061083f565b60405180910390fd5b60405180604001604052808281526020013373ffffffffffffffffffffffffffffffffffffffff168152505f803373ffffffffffffffffffffffffffffffffffffffff1673ffffffffffffffffffffffffffffffffffffffff1681526020019081526020015f205f820151815f0190816102559190610a60565b506020820151816001015f6101000a81548173ffffffffffffffffffffffffffffffffffffffff021916908373ffffffffffffffffffffffffffffffffffffffff16021790555090505050565b5f602052805f5260405f205f91509050805f0180546102c09061088a565b80601f01602080910402602001604051908101604052809291908181526020018280546102ec9061088a565b80156103375780601f1061030e57610100808354040283529160200191610337565b820191905f5260205f20905b81548152906001019060200180831161031a57829003601f168201915b505050505090806001015f9054906101000a900473ffffffffffffffffffffffffffffffffffffffff16905082565b60605f610372836100fc565b6103b1576040517f08c379a00000000000000000000000000000000000000000000000000000000081526004016103a890610b79565b60405180910390fd5b5f805f8573ffffffffffffffffffffffffffffffffffffffff1673ffffffffffffffffffffffffffffffffffffffff1681526020019081526020015f206040518060400160405290815f820180546104089061088a565b80601f01602080910402602001604051908101604052809291908181526020018280546104349061088a565b801561047f5780601f106104565761010080835404028352916020019161047f565b820191905f5260205f20905b81548152906001019060200180831161046257829003601f168201915b50505050508152602001600182015f9054906101000a900473ffffffffffffffffffffffffffffffffffffffff1673ffffffffffffffffffffffffffffffffffffffff1673ffffffffffffffffffffffffffffffffffffffff16815250509050805f015181602001519250925050915091565b5f604051905090565b5f80fd5b5f80fd5b5f73ffffffffffffffffffffffffffffffffffffffff82169050919050565b5f61052c82610503565b9050919050565b61053c81610522565b8114610546575f80fd5b50565b5f8135905061055781610533565b92915050565b5f60208284031215610572576105716104fb565b5b5f61057f84828501610549565b91505092915050565b5f8115159050919050565b61059c81610588565b82525050565b5f6020820190506105b55f830184610593565b92915050565b5f80fd5b5f80fd5b5f601f19601f8301169050919050565b7f4e487b71000000000000000000000000000000000000000000000000000000005f52604160045260245ffd5b610609826105c3565b810181811067ffffffffffffffff82111715610628576106276105d3565b5b80604052505050565b5f61063a6104f2565b90506106468282610600565b919050565b5f67ffffffffffffffff821115610665576106646105d3565b5b61066e826105c3565b9050602081019050919050565b828183375f83830152505050565b5f61069b6106968461064b565b610631565b9050828152602081018484840111156106b7576106b66105bf565b5b6106c284828561067b565b509392505050565b5f82601f8301126106de576106dd6105bb565b5b81356106ee848260208601610689565b91505092915050565b5f6020828403121561070c5761070b6104fb565b5b5f82013567ffffffffffffffff811115610729576107286104ff565b5b610735848285016106ca565b91505092915050565b5f81519050919050565b5f82825260208201905092915050565b5f5b8381101561077557808201518184015260208101905061075a565b5f8484015250505050565b5f61078a8261073e565b6107948185610748565b93506107a4818560208601610758565b6107ad816105c3565b840191505092915050565b6107c181610522565b82525050565b5f6040820190508181035f8301526107df8185610780565b90506107ee60208301846107b8565b9392505050565b7f5573657220616c726561647920657869737473000000000000000000000000005f82015250565b5f610829601383610748565b9150610834826107f5565b602082019050919050565b5f6020820190508181035f8301526108568161081d565b9050919050565b7f4e487b71000000000000000000000000000000000000000000000000000000005f52602260045260245ffd5b5f60028204905060018216806108a157607f821691505b6020821081036108b4576108b361085d565b5b50919050565b5f819050815f5260205f209050919050565b5f6020601f8301049050919050565b5f82821b905092915050565b5f600883026109167fffffffffffffffffffffffffffffffffffffffffffffffffffffffffffffffff826108db565b61092086836108db565b95508019841693508086168417925050509392505050565b5f819050919050565b5f819050919050565b5f61096461095f61095a84610938565b610941565b610938565b9050919050565b5f819050919050565b61097d8361094a565b6109916109898261096b565b8484546108e7565b825550505050565b5f90565b6109a5610999565b6109b0818484610974565b505050565b5b818110156109d3576109c85f8261099d565b6001810190506109b6565b5050565b601f821115610a18576109e9816108ba565b6109f2846108cc565b81016020851015610a01578190505b610a15610a0d856108cc565b8301826109b5565b50505b505050565b5f82821c905092915050565b5f610a385f1984600802610a1d565b1980831691505092915050565b5f610a508383610a29565b9150826002028217905092915050565b610a698261073e565b67ffffffffffffffff811115610a8257610a816105d3565b5b610a8c825461088a565b610a978282856109d7565b5f60209050601f831160018114610ac8575f8415610ab6578287015190505b610ac08582610a45565b865550610b27565b601f198416610ad6866108ba565b5f5b82811015610afd57848901518255600182019150602085019450602081019050610ad8565b86831015610b1a5784890151610b16601f891682610a29565b8355505b6001600288020188555050505b505050505050565b7f5573657220646f6573206e6f74206578697374000000000000000000000000005f82015250565b5f610b63601383610748565b9150610b6e82610b2f565b602082019050919050565b5f6020820190508181035f830152610b9081610b57565b905091905056fea264697066735822122018504d59368f85ae92037eef0c4fa0e35983817497a1cf5cd36775379931aea064736f6c63430008150033",
  "immutableReferences": {},
  "source": "// SPDX-License-Identifier: MIT\r\npragma solidity ^0.8.0;\r\n\r\ncontract HouseOwner {\r\n    struct Owner {\r\n        string username;\r\n        address userAddress;\r\n    }\r\n\r\n    mapping(address => Owner) public users;\r\n\r\n    // Method to register a new user\r\n    function registerOwner(string memory _username) external {\r\n        require(!isOwnerExist(msg.sender), \"User already exists\");\r\n        users[msg.sender] = Owner(_username, msg.sender);\r\n    }\r\n\r\n    // Method to check if a user already exists\r\n    function isOwnerExist(address _userAddress) public view returns (bool) {\r\n        return users[_userAddress].userAddress != address(0);\r\n    }\r\n\r\n    function getOwnerDetails(\r\n        address _userAddress\r\n    ) external view returns (string memory, address) {\r\n        require(isOwnerExist(_userAddress), \"User does not exist\");\r\n        Owner memory owner = users[_userAddress];\r\n        return (owner.username, owner.userAddress);\r\n    }\r\n}\r\n",
  "sourcePath": "D:\\BlockChain Projects\\deliverables\\House Energy Management\\energyhouse\\backend\\contracts\\HouseOwner.sol",
  "compiler": {
    "name": "solc",
    "version": "0.8.21+commit.d9974bed.Emscripten.clang"
  },
  "schemaVersion": "3.4.16",
  "updatedAt": "2024-04-15T12:02:03.354Z",
  "networkType": "ethereum",
  "devdoc": {
    "kind": "dev",
    "methods": {},
    "version": 1
  },
  "userdoc": {
    "kind": "user",
    "methods": {},
    "version": 1
  }
}