{
  "contractName": "House",
  "abi": [
    {
      "inputs": [],
      "stateMutability": "payable",
      "type": "constructor",
      "payable": true
    },
    {
      "anonymous": false,
      "inputs": [
        {
          "indexed": true,
          "internalType": "address",
          "name": "from",
          "type": "address"
        },
        {
          "indexed": true,
          "internalType": "address",
          "name": "to",
          "type": "address"
        },
        {
          "indexed": false,
          "internalType": "uint256",
          "name": "units",
          "type": "uint256"
        }
      ],
      "name": "EnergyTransaction",
      "type": "event"
    },
    {
      "inputs": [],
      "name": "houseCount",
      "outputs": [
        {
          "internalType": "uint256",
          "name": "",
          "type": "uint256"
        }
      ],
      "stateMutability": "view",
      "type": "function",
      "constant": true
    },
    {
      "inputs": [
        {
          "internalType": "uint256",
          "name": "",
          "type": "uint256"
        }
      ],
      "name": "houses",
      "outputs": [
        {
          "internalType": "string",
          "name": "houseName",
          "type": "string"
        },
        {
          "internalType": "string",
          "name": "houseAddress",
          "type": "string"
        },
        {
          "internalType": "uint256",
          "name": "houseId",
          "type": "uint256"
        },
        {
          "internalType": "uint256",
          "name": "energyProduction",
          "type": "uint256"
        },
        {
          "internalType": "uint256",
          "name": "energyConsumption",
          "type": "uint256"
        },
        {
          "internalType": "address",
          "name": "houseOwner",
          "type": "address"
        },
        {
          "internalType": "address",
          "name": "gridStation",
          "type": "address"
        }
      ],
      "stateMutability": "view",
      "type": "function",
      "constant": true
    },
    {
      "stateMutability": "payable",
      "type": "receive",
      "payable": true
    },
    {
      "inputs": [
        {
          "internalType": "string",
          "name": "_houseName",
          "type": "string"
        },
        {
          "internalType": "string",
          "name": "_houseAddress",
          "type": "string"
        },
        {
          "internalType": "address",
          "name": "_gridStation",
          "type": "address"
        }
      ],
      "name": "addHouse",
      "outputs": [],
      "stateMutability": "nonpayable",
      "type": "function"
    },
    {
      "inputs": [],
      "name": "getAllHouses",
      "outputs": [
        {
          "components": [
            {
              "internalType": "string",
              "name": "houseName",
              "type": "string"
            },
            {
              "internalType": "string",
              "name": "houseAddress",
              "type": "string"
            },
            {
              "internalType": "uint256",
              "name": "houseId",
              "type": "uint256"
            },
            {
              "internalType": "uint256",
              "name": "energyProduction",
              "type": "uint256"
            },
            {
              "internalType": "uint256",
              "name": "energyConsumption",
              "type": "uint256"
            },
            {
              "internalType": "address",
              "name": "houseOwner",
              "type": "address"
            },
            {
              "internalType": "address",
              "name": "gridStation",
              "type": "address"
            }
          ],
          "internalType": "struct House.HouseInfo[]",
          "name": "",
          "type": "tuple[]"
        }
      ],
      "stateMutability": "view",
      "type": "function",
      "constant": true
    },
    {
      "inputs": [
        {
          "internalType": "uint256",
          "name": "_houseId",
          "type": "uint256"
        }
      ],
      "name": "getHouseById",
      "outputs": [
        {
          "components": [
            {
              "internalType": "string",
              "name": "houseName",
              "type": "string"
            },
            {
              "internalType": "string",
              "name": "houseAddress",
              "type": "string"
            },
            {
              "internalType": "uint256",
              "name": "houseId",
              "type": "uint256"
            },
            {
              "internalType": "uint256",
              "name": "energyProduction",
              "type": "uint256"
            },
            {
              "internalType": "uint256",
              "name": "energyConsumption",
              "type": "uint256"
            },
            {
              "internalType": "address",
              "name": "houseOwner",
              "type": "address"
            },
            {
              "internalType": "address",
              "name": "gridStation",
              "type": "address"
            }
          ],
          "internalType": "struct House.HouseInfo",
          "name": "",
          "type": "tuple"
        }
      ],
      "stateMutability": "view",
      "type": "function",
      "constant": true
    },
    {
      "inputs": [
        {
          "internalType": "uint256",
          "name": "_houseId",
          "type": "uint256"
        },
        {
          "internalType": "uint256",
          "name": "_newProduction",
          "type": "uint256"
        }
      ],
      "name": "updateEnergyProduction",
      "outputs": [],
      "stateMutability": "nonpayable",
      "type": "function"
    },
    {
      "inputs": [
        {
          "internalType": "uint256",
          "name": "_houseId",
          "type": "uint256"
        },
        {
          "internalType": "uint256",
          "name": "_newConsumption",
          "type": "uint256"
        }
      ],
      "name": "updateEnergyConsumption",
      "outputs": [],
      "stateMutability": "nonpayable",
      "type": "function"
    }
  ],
  "bytecode": "0x60806040525f600155611dd1806100155f395ff3fe608060405260043610610073575f3560e01c8063aeda852f1161004d578063aeda852f1461010a578063bd74f8b11461014c578063d6b4917d14610176578063d87deea81461019e5761007a565b806314ac7bbc1461007e57806315c122e0146100a657806377e2a742146100e25761007a565b3661007a57005b5f80fd5b348015610089575f80fd5b506100a4600480360381019061009f91906112ed565b6101c8565b005b3480156100b1575f80fd5b506100cc60048036038101906100c791906113a8565b61032e565b6040516100d9919061150b565b60405180910390f35b3480156100ed575f80fd5b506101086004803603810190610103919061152b565b61053f565b005b348015610115575f80fd5b50610130600480360381019061012b91906113a8565b610618565b60405161014397969594939291906115cf565b60405180910390f35b348015610157575f80fd5b5061016061079f565b60405161016d919061164a565b60405180910390f35b348015610181575f80fd5b5061019c6004803603810190610197919061152b565b6107a5565b005b3480156101a9575f80fd5b506101b261087e565b6040516101bf91906117be565b60405180910390f35b60015f8154809291906101da9061180b565b91905055506040518060e0016040528084815260200183815260200160015481526020015f81526020015f81526020013373ffffffffffffffffffffffffffffffffffffffff1681526020018273ffffffffffffffffffffffffffffffffffffffff168152505f8060015481526020019081526020015f205f820151815f0190816102659190611a4c565b50602082015181600101908161027b9190611a4c565b5060408201518160020155606082015181600301556080820151816004015560a0820151816005015f6101000a81548173ffffffffffffffffffffffffffffffffffffffff021916908373ffffffffffffffffffffffffffffffffffffffff16021790555060c0820151816006015f6101000a81548173ffffffffffffffffffffffffffffffffffffffff021916908373ffffffffffffffffffffffffffffffffffffffff160217905550905050505050565b6103366110e2565b5f808381526020019081526020015f206040518060e00160405290815f820180546103609061187f565b80601f016020809104026020016040519081016040528092919081815260200182805461038c9061187f565b80156103d75780601f106103ae576101008083540402835291602001916103d7565b820191905f5260205f20905b8154815290600101906020018083116103ba57829003601f168201915b505050505081526020016001820180546103f09061187f565b80601f016020809104026020016040519081016040528092919081815260200182805461041c9061187f565b80156104675780601f1061043e57610100808354040283529160200191610467565b820191905f5260205f20905b81548152906001019060200180831161044a57829003601f168201915b50505050508152602001600282015481526020016003820154815260200160048201548152602001600582015f9054906101000a900473ffffffffffffffffffffffffffffffffffffffff1673ffffffffffffffffffffffffffffffffffffffff1673ffffffffffffffffffffffffffffffffffffffff168152602001600682015f9054906101000a900473ffffffffffffffffffffffffffffffffffffffff1673ffffffffffffffffffffffffffffffffffffffff1673ffffffffffffffffffffffffffffffffffffffff16815250509050919050565b815f805f8381526020019081526020015f206003015490505f805f8481526020019081526020015f2060040154905081811115610591575f82826105839190611b1b565b905061058f8482610b2f565b505b808211156105b4575f81836105a69190611b1b565b90506105b28482610dcc565b505b6001548511156105f9576040517f08c379a00000000000000000000000000000000000000000000000000000000081526004016105f090611b98565b60405180910390fd5b835f808781526020019081526020015f20600301819055505050505050565b5f602052805f5260405f205f91509050805f0180546106369061187f565b80601f01602080910402602001604051908101604052809291908181526020018280546106629061187f565b80156106ad5780601f10610684576101008083540402835291602001916106ad565b820191905f5260205f20905b81548152906001019060200180831161069057829003601f168201915b5050505050908060010180546106c29061187f565b80601f01602080910402602001604051908101604052809291908181526020018280546106ee9061187f565b80156107395780601f1061071057610100808354040283529160200191610739565b820191905f5260205f20905b81548152906001019060200180831161071c57829003601f168201915b505050505090806002015490806003015490806004015490806005015f9054906101000a900473ffffffffffffffffffffffffffffffffffffffff1690806006015f9054906101000a900473ffffffffffffffffffffffffffffffffffffffff16905087565b60015481565b815f805f8381526020019081526020015f206003015490505f805f8481526020019081526020015f20600401549050818111156107f7575f82826107e99190611b1b565b90506107f58482610b2f565b505b8082111561081a575f818361080c9190611b1b565b90506108188482610dcc565b505b60015485111561085f576040517f08c379a000000000000000000000000000000000000000000000000000000000815260040161085690611b98565b60405180910390fd5b835f808781526020019081526020015f20600401819055505050505050565b60605f60015467ffffffffffffffff81111561089d5761089c61116f565b5b6040519080825280602002602001820160405280156108d657816020015b6108c36110e2565b8152602001906001900390816108bb5790505b5090505f600190505b6001548111610b27575f808281526020019081526020015f206040518060e00160405290815f820180546109129061187f565b80601f016020809104026020016040519081016040528092919081815260200182805461093e9061187f565b80156109895780601f1061096057610100808354040283529160200191610989565b820191905f5260205f20905b81548152906001019060200180831161096c57829003601f168201915b505050505081526020016001820180546109a29061187f565b80601f01602080910402602001604051908101604052809291908181526020018280546109ce9061187f565b8015610a195780601f106109f057610100808354040283529160200191610a19565b820191905f5260205f20905b8154815290600101906020018083116109fc57829003601f168201915b50505050508152602001600282015481526020016003820154815260200160048201548152602001600582015f9054906101000a900473ffffffffffffffffffffffffffffffffffffffff1673ffffffffffffffffffffffffffffffffffffffff1673ffffffffffffffffffffffffffffffffffffffff168152602001600682015f9054906101000a900473ffffffffffffffffffffffffffffffffffffffff1673ffffffffffffffffffffffffffffffffffffffff1673ffffffffffffffffffffffffffffffffffffffff168152505082600183610af89190611b1b565b81518110610b0957610b08611bb6565b5b60200260200101819052508080610b1f9061180b565b9150506108df565b508091505090565b5f8111610b71576040517f08c379a0000000000000000000000000000000000000000000000000000000008152600401610b6890611c2d565b60405180910390fd5b5f73ffffffffffffffffffffffffffffffffffffffff165f808481526020019081526020015f206006015f9054906101000a900473ffffffffffffffffffffffffffffffffffffffff1673ffffffffffffffffffffffffffffffffffffffff1603610c11576040517f08c379a0000000000000000000000000000000000000000000000000000000008152600401610c0890611c95565b60405180910390fd5b5f805f8481526020019081526020015f206006015f9054906101000a900473ffffffffffffffffffffffffffffffffffffffff1690505f8190505f8173ffffffffffffffffffffffffffffffffffffffff1663788d69c56040518163ffffffff1660e01b8152600401602060405180830381865afa158015610c95573d5f803e3d5ffd5b505050506040513d601f19601f82011682018060405250810190610cb99190611cc7565b84610cc49190611cf2565b90508173ffffffffffffffffffffffffffffffffffffffff16630bf282b182866040518363ffffffff1660e01b8152600401610d00919061164a565b5f604051808303818588803b158015610d17575f80fd5b505af1158015610d29573d5f803e3d5ffd5b50505050505f808681526020019081526020015f206006015f9054906101000a900473ffffffffffffffffffffffffffffffffffffffff1673ffffffffffffffffffffffffffffffffffffffff163373ffffffffffffffffffffffffffffffffffffffff167fdaa91170aa5a72a4eaf8c0a5a517f746870d5f9a0593541e59913311d04139c286604051610dbd919061164a565b60405180910390a35050505050565b5f8111610e0e576040517f08c379a0000000000000000000000000000000000000000000000000000000008152600401610e0590611d7d565b60405180910390fd5b5f73ffffffffffffffffffffffffffffffffffffffff165f808481526020019081526020015f206006015f9054906101000a900473ffffffffffffffffffffffffffffffffffffffff1673ffffffffffffffffffffffffffffffffffffffff1603610eae576040517f08c379a0000000000000000000000000000000000000000000000000000000008152600401610ea590611c95565b60405180910390fd5b5f805f8481526020019081526020015f206006015f9054906101000a900473ffffffffffffffffffffffffffffffffffffffff1690505f8190508073ffffffffffffffffffffffffffffffffffffffff166304acd9ad846040518263ffffffff1660e01b8152600401610f21919061164a565b5f604051808303815f87803b158015610f38575f80fd5b505af1158015610f4a573d5f803e3d5ffd5b505050505f808581526020019081526020015f206006015f9054906101000a900473ffffffffffffffffffffffffffffffffffffffff1673ffffffffffffffffffffffffffffffffffffffff163373ffffffffffffffffffffffffffffffffffffffff167fdaa91170aa5a72a4eaf8c0a5a517f746870d5f9a0593541e59913311d04139c285604051610fdd919061164a565b60405180910390a35f8173ffffffffffffffffffffffffffffffffffffffff1663788d69c56040518163ffffffff1660e01b8152600401602060405180830381865afa15801561102f573d5f803e3d5ffd5b505050506040513d601f19601f820116820180604052508101906110539190611cc7565b8461105e9190611cf2565b90505f805f8781526020019081526020015f206005015f9054906101000a900473ffffffffffffffffffffffffffffffffffffffff1690508073ffffffffffffffffffffffffffffffffffffffff166108fc8390811502906040515f60405180830381858888f193505050501580156110d9573d5f803e3d5ffd5b50505050505050565b6040518060e0016040528060608152602001606081526020015f81526020015f81526020015f81526020015f73ffffffffffffffffffffffffffffffffffffffff1681526020015f73ffffffffffffffffffffffffffffffffffffffff1681525090565b5f604051905090565b5f80fd5b5f80fd5b5f80fd5b5f80fd5b5f601f19601f8301169050919050565b7f4e487b71000000000000000000000000000000000000000000000000000000005f52604160045260245ffd5b6111a58261115f565b810181811067ffffffffffffffff821117156111c4576111c361116f565b5b80604052505050565b5f6111d6611146565b90506111e2828261119c565b919050565b5f67ffffffffffffffff8211156112015761120061116f565b5b61120a8261115f565b9050602081019050919050565b828183375f83830152505050565b5f611237611232846111e7565b6111cd565b9050828152602081018484840111156112535761125261115b565b5b61125e848285611217565b509392505050565b5f82601f83011261127a57611279611157565b5b813561128a848260208601611225565b91505092915050565b5f73ffffffffffffffffffffffffffffffffffffffff82169050919050565b5f6112bc82611293565b9050919050565b6112cc816112b2565b81146112d6575f80fd5b50565b5f813590506112e7816112c3565b92915050565b5f805f606084860312156113045761130361114f565b5b5f84013567ffffffffffffffff81111561132157611320611153565b5b61132d86828701611266565b935050602084013567ffffffffffffffff81111561134e5761134d611153565b5b61135a86828701611266565b925050604061136b868287016112d9565b9150509250925092565b5f819050919050565b61138781611375565b8114611391575f80fd5b50565b5f813590506113a28161137e565b92915050565b5f602082840312156113bd576113bc61114f565b5b5f6113ca84828501611394565b91505092915050565b5f81519050919050565b5f82825260208201905092915050565b5f5b8381101561140a5780820151818401526020810190506113ef565b5f8484015250505050565b5f61141f826113d3565b61142981856113dd565b93506114398185602086016113ed565b6114428161115f565b840191505092915050565b61145681611375565b82525050565b611465816112b2565b82525050565b5f60e083015f8301518482035f8601526114858282611415565b9150506020830151848203602086015261149f8282611415565b91505060408301516114b4604086018261144d565b5060608301516114c7606086018261144d565b5060808301516114da608086018261144d565b5060a08301516114ed60a086018261145c565b5060c083015161150060c086018261145c565b508091505092915050565b5f6020820190508181035f830152611523818461146b565b905092915050565b5f80604083850312156115415761154061114f565b5b5f61154e85828601611394565b925050602061155f85828601611394565b9150509250929050565b5f82825260208201905092915050565b5f611583826113d3565b61158d8185611569565b935061159d8185602086016113ed565b6115a68161115f565b840191505092915050565b6115ba81611375565b82525050565b6115c9816112b2565b82525050565b5f60e0820190508181035f8301526115e7818a611579565b905081810360208301526115fb8189611579565b905061160a60408301886115b1565b61161760608301876115b1565b61162460808301866115b1565b61163160a08301856115c0565b61163e60c08301846115c0565b98975050505050505050565b5f60208201905061165d5f8301846115b1565b92915050565b5f81519050919050565b5f82825260208201905092915050565b5f819050602082019050919050565b5f60e083015f8301518482035f8601526116a68282611415565b915050602083015184820360208601526116c08282611415565b91505060408301516116d5604086018261144d565b5060608301516116e8606086018261144d565b5060808301516116fb608086018261144d565b5060a083015161170e60a086018261145c565b5060c083015161172160c086018261145c565b508091505092915050565b5f611737838361168c565b905092915050565b5f602082019050919050565b5f61175582611663565b61175f818561166d565b9350836020820285016117718561167d565b805f5b858110156117ac578484038952815161178d858261172c565b94506117988361173f565b925060208a01995050600181019050611774565b50829750879550505050505092915050565b5f6020820190508181035f8301526117d6818461174b565b905092915050565b7f4e487b71000000000000000000000000000000000000000000000000000000005f52601160045260245ffd5b5f61181582611375565b91507fffffffffffffffffffffffffffffffffffffffffffffffffffffffffffffffff8203611847576118466117de565b5b600182019050919050565b7f4e487b71000000000000000000000000000000000000000000000000000000005f52602260045260245ffd5b5f600282049050600182168061189657607f821691505b6020821081036118a9576118a8611852565b5b50919050565b5f819050815f5260205f209050919050565b5f6020601f8301049050919050565b5f82821b905092915050565b5f6008830261190b7fffffffffffffffffffffffffffffffffffffffffffffffffffffffffffffffff826118d0565b61191586836118d0565b95508019841693508086168417925050509392505050565b5f819050919050565b5f61195061194b61194684611375565b61192d565b611375565b9050919050565b5f819050919050565b61196983611936565b61197d61197582611957565b8484546118dc565b825550505050565b5f90565b611991611985565b61199c818484611960565b505050565b5b818110156119bf576119b45f82611989565b6001810190506119a2565b5050565b601f821115611a04576119d5816118af565b6119de846118c1565b810160208510156119ed578190505b611a016119f9856118c1565b8301826119a1565b50505b505050565b5f82821c905092915050565b5f611a245f1984600802611a09565b1980831691505092915050565b5f611a3c8383611a15565b9150826002028217905092915050565b611a55826113d3565b67ffffffffffffffff811115611a6e57611a6d61116f565b5b611a78825461187f565b611a838282856119c3565b5f60209050601f831160018114611ab4575f8415611aa2578287015190505b611aac8582611a31565b865550611b13565b601f198416611ac2866118af565b5f5b82811015611ae957848901518255600182019150602085019450602081019050611ac4565b86831015611b065784890151611b02601f891682611a15565b8355505b6001600288020188555050505b505050505050565b5f611b2582611375565b9150611b3083611375565b9250828203905081811115611b4857611b476117de565b5b92915050565b7f496e76616c696420486f757365204944000000000000000000000000000000005f82015250565b5f611b82601083611569565b9150611b8d82611b4e565b602082019050919050565b5f6020820190508181035f830152611baf81611b76565b9050919050565b7f4e487b71000000000000000000000000000000000000000000000000000000005f52603260045260245ffd5b7f496e76616c696420756e69747320746f206275790000000000000000000000005f82015250565b5f611c17601483611569565b9150611c2282611be3565b602082019050919050565b5f6020820190508181035f830152611c4481611c0b565b9050919050565b7f477269642073746174696f6e2061646472657373206e6f7420736574000000005f82015250565b5f611c7f601c83611569565b9150611c8a82611c4b565b602082019050919050565b5f6020820190508181035f830152611cac81611c73565b9050919050565b5f81519050611cc18161137e565b92915050565b5f60208284031215611cdc57611cdb61114f565b5b5f611ce984828501611cb3565b91505092915050565b5f611cfc82611375565b9150611d0783611375565b9250828202611d1581611375565b91508282048414831517611d2c57611d2b6117de565b5b5092915050565b7f496e76616c696420756e69747320746f2073656c6c00000000000000000000005f82015250565b5f611d67601583611569565b9150611d7282611d33565b602082019050919050565b5f6020820190508181035f830152611d9481611d5b565b905091905056fea2646970667358221220048138c7d34117af9a192379073da9edf507b884ef3309462bd1f78dc7337dff64736f6c63430008150033",
  "immutableReferences": {},
  "source": "// SPDX-License-Identifier: MIT\r\npragma solidity ^0.8.0;\r\n\r\nimport \"./GridStation.sol\";\r\n\r\ncontract House {\r\n    struct HouseInfo {\r\n        string houseName;\r\n        string houseAddress;\r\n        uint256 houseId;\r\n        uint256 energyProduction;\r\n        uint256 energyConsumption;\r\n        address houseOwner;\r\n        address gridStation;\r\n    }\r\n\r\n    constructor() payable {}\r\n\r\n    receive() external payable {}\r\n\r\n    mapping(uint256 => HouseInfo) public houses;\r\n    uint256 public houseCount = 0;\r\n\r\n    // Event to emit when energy is bought or sold\r\n    event EnergyTransaction(\r\n        address indexed from,\r\n        address indexed to,\r\n        uint256 units\r\n    );\r\n\r\n    modifier checkEnergyBalance(uint256 _houseId) {\r\n        uint256 production = houses[_houseId].energyProduction;\r\n        uint256 consumption = houses[_houseId].energyConsumption;\r\n        if (consumption > production) {\r\n            uint256 unitsToBuy = consumption - production;\r\n            buyFromGrid(_houseId, unitsToBuy);\r\n        }\r\n        if (production > consumption) {\r\n            uint256 unitsToSell = production - consumption;\r\n            sellToGrid(_houseId, unitsToSell);\r\n        }\r\n        _;\r\n    }\r\n\r\n    // Method to add a new house\r\n    function addHouse(\r\n        string memory _houseName,\r\n        string memory _houseAddress,\r\n        address _gridStation\r\n    ) external {\r\n        houseCount++;\r\n        houses[houseCount] = HouseInfo(\r\n            _houseName,\r\n            _houseAddress,\r\n            houseCount,\r\n            0,\r\n            0,\r\n            msg.sender,\r\n            _gridStation\r\n        );\r\n    }\r\n\r\n    // Method to get all houses\r\n    function getAllHouses() external view returns (HouseInfo[] memory) {\r\n        HouseInfo[] memory allHouses = new HouseInfo[](houseCount);\r\n        for (uint256 i = 1; i <= houseCount; i++) {\r\n            allHouses[i - 1] = houses[i];\r\n        }\r\n        return allHouses;\r\n    }\r\n\r\n    // Method to get house by ID\r\n    function getHouseById(\r\n        uint256 _houseId\r\n    ) external view returns (HouseInfo memory) {\r\n        return houses[_houseId];\r\n    }\r\n\r\n    // Method to update energy production for a house\r\n    function updateEnergyProduction(\r\n        uint256 _houseId,\r\n        uint256 _newProduction\r\n    ) external checkEnergyBalance(_houseId) {\r\n        require(_houseId <= houseCount, \"Invalid House ID\");\r\n        houses[_houseId].energyProduction = _newProduction;\r\n    }\r\n\r\n    // Method to update energy consumption for a house\r\n    function updateEnergyConsumption(\r\n        uint256 _houseId,\r\n        uint256 _newConsumption\r\n    ) external checkEnergyBalance(_houseId) {\r\n        require(_houseId <= houseCount, \"Invalid House ID\");\r\n        houses[_houseId].energyConsumption = _newConsumption;\r\n    }\r\n\r\n    function buyFromGrid(uint256 _houseId, uint256 _units) internal {\r\n        require(_units > 0, \"Invalid units to buy\");\r\n        require(\r\n            houses[_houseId].gridStation != address(0),\r\n            \"Grid station address not set\"\r\n        );\r\n        address payable gridStationAddr = payable(houses[_houseId].gridStation);\r\n        GridStation gridStation = GridStation(gridStationAddr);\r\n        uint256 amount = _units * gridStation.buyUnitsFromGridPrice();\r\n        gridStation.buyUnitsFromGrid{value: amount}(_units);\r\n        emit EnergyTransaction(\r\n            msg.sender,\r\n            houses[_houseId].gridStation,\r\n            _units\r\n        );\r\n    }\r\n\r\n    // Internal method to sell units to grid station\r\n    function sellToGrid(uint256 _houseId, uint256 _units) internal {\r\n        require(_units > 0, \"Invalid units to sell\");\r\n        require(\r\n            houses[_houseId].gridStation != address(0),\r\n            \"Grid station address not set\"\r\n        );\r\n        address payable gridStationAddr = payable(houses[_houseId].gridStation);\r\n        GridStation gridStation = GridStation(gridStationAddr);\r\n        gridStation.sellUnitsToGrid(_units);\r\n        emit EnergyTransaction(\r\n            msg.sender,\r\n            houses[_houseId].gridStation,\r\n            _units\r\n        );\r\n        uint256 amount = _units * gridStation.buyUnitsFromGridPrice();\r\n        address payable houseOwner = payable(houses[_houseId].houseOwner);\r\n        houseOwner.transfer(amount);\r\n    }\r\n}\r\n",
  "sourcePath": "D:\\BlockChain Projects\\deliverables\\House Energy Management\\energyhouse\\backend\\contracts\\House.sol",
  "compiler": {
    "name": "solc",
    "version": "0.8.21+commit.d9974bed.Emscripten.clang"
  },
  "schemaVersion": "3.4.16",
  "updatedAt": "2024-04-15T12:02:02.992Z",
  "networkType": "ethereum",
  "devdoc": {
    "kind": "dev",
    "methods": {},
    "version": 1
  },
  "userdoc": {
    "kind": "user",
    "methods": {},
    "version": 1
  }
}