{
  "contractName": "House",
  "abi": [
    {
      "inputs": [],
      "stateMutability": "payable",
      "type": "constructor",
      "payable": true
    },
    {
      "anonymous": false,
      "inputs": [
        {
          "indexed": true,
          "internalType": "address",
          "name": "from",
          "type": "address"
        },
        {
          "indexed": true,
          "internalType": "address",
          "name": "to",
          "type": "address"
        },
        {
          "indexed": false,
          "internalType": "uint256",
          "name": "units",
          "type": "uint256"
        }
      ],
      "name": "EnergyTransaction",
      "type": "event"
    },
    {
      "inputs": [],
      "name": "houseCount",
      "outputs": [
        {
          "internalType": "uint256",
          "name": "",
          "type": "uint256"
        }
      ],
      "stateMutability": "view",
      "type": "function",
      "constant": true
    },
    {
      "inputs": [
        {
          "internalType": "uint256",
          "name": "",
          "type": "uint256"
        }
      ],
      "name": "houses",
      "outputs": [
        {
          "internalType": "string",
          "name": "houseName",
          "type": "string"
        },
        {
          "internalType": "string",
          "name": "houseAddress",
          "type": "string"
        },
        {
          "internalType": "uint256",
          "name": "houseId",
          "type": "uint256"
        },
        {
          "internalType": "uint256",
          "name": "energyProduction",
          "type": "uint256"
        },
        {
          "internalType": "uint256",
          "name": "energyConsumption",
          "type": "uint256"
        },
        {
          "internalType": "address",
          "name": "houseOwner",
          "type": "address"
        },
        {
          "internalType": "address",
          "name": "gridStation",
          "type": "address"
        }
      ],
      "stateMutability": "view",
      "type": "function",
      "constant": true
    },
    {
      "stateMutability": "payable",
      "type": "receive",
      "payable": true
    },
    {
      "inputs": [
        {
          "internalType": "string",
          "name": "_houseName",
          "type": "string"
        },
        {
          "internalType": "string",
          "name": "_houseAddress",
          "type": "string"
        },
        {
          "internalType": "address",
          "name": "_gridStation",
          "type": "address"
        }
      ],
      "name": "addHouse",
      "outputs": [],
      "stateMutability": "nonpayable",
      "type": "function"
    },
    {
      "inputs": [],
      "name": "getAllHouses",
      "outputs": [
        {
          "components": [
            {
              "internalType": "string",
              "name": "houseName",
              "type": "string"
            },
            {
              "internalType": "string",
              "name": "houseAddress",
              "type": "string"
            },
            {
              "internalType": "uint256",
              "name": "houseId",
              "type": "uint256"
            },
            {
              "internalType": "uint256",
              "name": "energyProduction",
              "type": "uint256"
            },
            {
              "internalType": "uint256",
              "name": "energyConsumption",
              "type": "uint256"
            },
            {
              "internalType": "address",
              "name": "houseOwner",
              "type": "address"
            },
            {
              "internalType": "address",
              "name": "gridStation",
              "type": "address"
            }
          ],
          "internalType": "struct House.HouseInfo[]",
          "name": "",
          "type": "tuple[]"
        }
      ],
      "stateMutability": "view",
      "type": "function",
      "constant": true
    },
    {
      "inputs": [
        {
          "internalType": "uint256",
          "name": "_houseId",
          "type": "uint256"
        }
      ],
      "name": "getHouseById",
      "outputs": [
        {
          "components": [
            {
              "internalType": "string",
              "name": "houseName",
              "type": "string"
            },
            {
              "internalType": "string",
              "name": "houseAddress",
              "type": "string"
            },
            {
              "internalType": "uint256",
              "name": "houseId",
              "type": "uint256"
            },
            {
              "internalType": "uint256",
              "name": "energyProduction",
              "type": "uint256"
            },
            {
              "internalType": "uint256",
              "name": "energyConsumption",
              "type": "uint256"
            },
            {
              "internalType": "address",
              "name": "houseOwner",
              "type": "address"
            },
            {
              "internalType": "address",
              "name": "gridStation",
              "type": "address"
            }
          ],
          "internalType": "struct House.HouseInfo",
          "name": "",
          "type": "tuple"
        }
      ],
      "stateMutability": "view",
      "type": "function",
      "constant": true
    },
    {
      "inputs": [
        {
          "internalType": "uint256",
          "name": "_houseId",
          "type": "uint256"
        },
        {
          "internalType": "uint256",
          "name": "_newProduction",
          "type": "uint256"
        }
      ],
      "name": "updateEnergyProduction",
      "outputs": [],
      "stateMutability": "nonpayable",
      "type": "function"
    },
    {
      "inputs": [
        {
          "internalType": "uint256",
          "name": "_houseId",
          "type": "uint256"
        },
        {
          "internalType": "uint256",
          "name": "_newConsumption",
          "type": "uint256"
        }
      ],
      "name": "updateEnergyConsumption",
      "outputs": [],
      "stateMutability": "nonpayable",
      "type": "function"
    }
  ],
  "bytecode": "0x60806040525f600155611ddd806100155f395ff3fe608060405260043610610073575f3560e01c8063aeda852f1161004d578063aeda852f1461010a578063bd74f8b11461014c578063d6b4917d14610176578063d87deea81461019e5761007a565b806314ac7bbc1461007e57806315c122e0146100a657806377e2a742146100e25761007a565b3661007a57005b5f80fd5b348015610089575f80fd5b506100a4600480360381019061009f91906112f9565b6101c8565b005b3480156100b1575f80fd5b506100cc60048036038101906100c791906113b4565b61032e565b6040516100d99190611517565b60405180910390f35b3480156100ed575f80fd5b5061010860048036038101906101039190611537565b61053f565b005b348015610115575f80fd5b50610130600480360381019061012b91906113b4565b610618565b60405161014397969594939291906115db565b60405180910390f35b348015610157575f80fd5b5061016061079f565b60405161016d9190611656565b60405180910390f35b348015610181575f80fd5b5061019c60048036038101906101979190611537565b6107a5565b005b3480156101a9575f80fd5b506101b261087e565b6040516101bf91906117ca565b60405180910390f35b60015f8154809291906101da90611817565b91905055506040518060e0016040528084815260200183815260200160015481526020015f81526020015f81526020013373ffffffffffffffffffffffffffffffffffffffff1681526020018273ffffffffffffffffffffffffffffffffffffffff168152505f8060015481526020019081526020015f205f820151815f0190816102659190611a58565b50602082015181600101908161027b9190611a58565b5060408201518160020155606082015181600301556080820151816004015560a0820151816005015f6101000a81548173ffffffffffffffffffffffffffffffffffffffff021916908373ffffffffffffffffffffffffffffffffffffffff16021790555060c0820151816006015f6101000a81548173ffffffffffffffffffffffffffffffffffffffff021916908373ffffffffffffffffffffffffffffffffffffffff160217905550905050505050565b6103366110ee565b5f808381526020019081526020015f206040518060e00160405290815f820180546103609061188b565b80601f016020809104026020016040519081016040528092919081815260200182805461038c9061188b565b80156103d75780601f106103ae576101008083540402835291602001916103d7565b820191905f5260205f20905b8154815290600101906020018083116103ba57829003601f168201915b505050505081526020016001820180546103f09061188b565b80601f016020809104026020016040519081016040528092919081815260200182805461041c9061188b565b80156104675780601f1061043e57610100808354040283529160200191610467565b820191905f5260205f20905b81548152906001019060200180831161044a57829003601f168201915b50505050508152602001600282015481526020016003820154815260200160048201548152602001600582015f9054906101000a900473ffffffffffffffffffffffffffffffffffffffff1673ffffffffffffffffffffffffffffffffffffffff1673ffffffffffffffffffffffffffffffffffffffff168152602001600682015f9054906101000a900473ffffffffffffffffffffffffffffffffffffffff1673ffffffffffffffffffffffffffffffffffffffff1673ffffffffffffffffffffffffffffffffffffffff16815250509050919050565b815f805f8381526020019081526020015f206003015490505f805f8481526020019081526020015f2060040154905081811115610591575f82826105839190611b27565b905061058f8482610b3b565b505b808211156105b4575f81836105a69190611b27565b90506105b28482610dd8565b505b6001548511156105f9576040517f08c379a00000000000000000000000000000000000000000000000000000000081526004016105f090611ba4565b60405180910390fd5b835f808781526020019081526020015f20600301819055505050505050565b5f602052805f5260405f205f91509050805f0180546106369061188b565b80601f01602080910402602001604051908101604052809291908181526020018280546106629061188b565b80156106ad5780601f10610684576101008083540402835291602001916106ad565b820191905f5260205f20905b81548152906001019060200180831161069057829003601f168201915b5050505050908060010180546106c29061188b565b80601f01602080910402602001604051908101604052809291908181526020018280546106ee9061188b565b80156107395780601f1061071057610100808354040283529160200191610739565b820191905f5260205f20905b81548152906001019060200180831161071c57829003601f168201915b505050505090806002015490806003015490806004015490806005015f9054906101000a900473ffffffffffffffffffffffffffffffffffffffff1690806006015f9054906101000a900473ffffffffffffffffffffffffffffffffffffffff16905087565b60015481565b815f805f8381526020019081526020015f206003015490505f805f8481526020019081526020015f20600401549050818111156107f7575f82826107e99190611b27565b90506107f58482610b3b565b505b8082111561081a575f818361080c9190611b27565b90506108188482610dd8565b505b60015485111561085f576040517f08c379a000000000000000000000000000000000000000000000000000000000815260040161085690611ba4565b60405180910390fd5b835f808781526020019081526020015f20600401819055505050505050565b60605f60015467ffffffffffffffff81111561089d5761089c61117b565b5b6040519080825280602002602001820160405280156108d657816020015b6108c36110ee565b8152602001906001900390816108bb5790505b5090505f600190505b6001548111610b33575f806001836108f79190611b27565b81526020019081526020015f206040518060e00160405290815f8201805461091e9061188b565b80601f016020809104026020016040519081016040528092919081815260200182805461094a9061188b565b80156109955780601f1061096c57610100808354040283529160200191610995565b820191905f5260205f20905b81548152906001019060200180831161097857829003601f168201915b505050505081526020016001820180546109ae9061188b565b80601f01602080910402602001604051908101604052809291908181526020018280546109da9061188b565b8015610a255780601f106109fc57610100808354040283529160200191610a25565b820191905f5260205f20905b815481529060010190602001808311610a0857829003601f168201915b50505050508152602001600282015481526020016003820154815260200160048201548152602001600582015f9054906101000a900473ffffffffffffffffffffffffffffffffffffffff1673ffffffffffffffffffffffffffffffffffffffff1673ffffffffffffffffffffffffffffffffffffffff168152602001600682015f9054906101000a900473ffffffffffffffffffffffffffffffffffffffff1673ffffffffffffffffffffffffffffffffffffffff1673ffffffffffffffffffffffffffffffffffffffff168152505082600183610b049190611b27565b81518110610b1557610b14611bc2565b5b60200260200101819052508080610b2b90611817565b9150506108df565b508091505090565b5f8111610b7d576040517f08c379a0000000000000000000000000000000000000000000000000000000008152600401610b7490611c39565b60405180910390fd5b5f73ffffffffffffffffffffffffffffffffffffffff165f808481526020019081526020015f206006015f9054906101000a900473ffffffffffffffffffffffffffffffffffffffff1673ffffffffffffffffffffffffffffffffffffffff1603610c1d576040517f08c379a0000000000000000000000000000000000000000000000000000000008152600401610c1490611ca1565b60405180910390fd5b5f805f8481526020019081526020015f206006015f9054906101000a900473ffffffffffffffffffffffffffffffffffffffff1690505f8190505f8173ffffffffffffffffffffffffffffffffffffffff1663788d69c56040518163ffffffff1660e01b8152600401602060405180830381865afa158015610ca1573d5f803e3d5ffd5b505050506040513d601f19601f82011682018060405250810190610cc59190611cd3565b84610cd09190611cfe565b90508173ffffffffffffffffffffffffffffffffffffffff16630bf282b182866040518363ffffffff1660e01b8152600401610d0c9190611656565b5f604051808303818588803b158015610d23575f80fd5b505af1158015610d35573d5f803e3d5ffd5b50505050505f808681526020019081526020015f206006015f9054906101000a900473ffffffffffffffffffffffffffffffffffffffff1673ffffffffffffffffffffffffffffffffffffffff163373ffffffffffffffffffffffffffffffffffffffff167fdaa91170aa5a72a4eaf8c0a5a517f746870d5f9a0593541e59913311d04139c286604051610dc99190611656565b60405180910390a35050505050565b5f8111610e1a576040517f08c379a0000000000000000000000000000000000000000000000000000000008152600401610e1190611d89565b60405180910390fd5b5f73ffffffffffffffffffffffffffffffffffffffff165f808481526020019081526020015f206006015f9054906101000a900473ffffffffffffffffffffffffffffffffffffffff1673ffffffffffffffffffffffffffffffffffffffff1603610eba576040517f08c379a0000000000000000000000000000000000000000000000000000000008152600401610eb190611ca1565b60405180910390fd5b5f805f8481526020019081526020015f206006015f9054906101000a900473ffffffffffffffffffffffffffffffffffffffff1690505f8190508073ffffffffffffffffffffffffffffffffffffffff166304acd9ad846040518263ffffffff1660e01b8152600401610f2d9190611656565b5f604051808303815f87803b158015610f44575f80fd5b505af1158015610f56573d5f803e3d5ffd5b505050505f808581526020019081526020015f206006015f9054906101000a900473ffffffffffffffffffffffffffffffffffffffff1673ffffffffffffffffffffffffffffffffffffffff163373ffffffffffffffffffffffffffffffffffffffff167fdaa91170aa5a72a4eaf8c0a5a517f746870d5f9a0593541e59913311d04139c285604051610fe99190611656565b60405180910390a35f8173ffffffffffffffffffffffffffffffffffffffff1663788d69c56040518163ffffffff1660e01b8152600401602060405180830381865afa15801561103b573d5f803e3d5ffd5b505050506040513d601f19601f8201168201806040525081019061105f9190611cd3565b8461106a9190611cfe565b90505f805f8781526020019081526020015f206005015f9054906101000a900473ffffffffffffffffffffffffffffffffffffffff1690508073ffffffffffffffffffffffffffffffffffffffff166108fc8390811502906040515f60405180830381858888f193505050501580156110e5573d5f803e3d5ffd5b50505050505050565b6040518060e0016040528060608152602001606081526020015f81526020015f81526020015f81526020015f73ffffffffffffffffffffffffffffffffffffffff1681526020015f73ffffffffffffffffffffffffffffffffffffffff1681525090565b5f604051905090565b5f80fd5b5f80fd5b5f80fd5b5f80fd5b5f601f19601f8301169050919050565b7f4e487b71000000000000000000000000000000000000000000000000000000005f52604160045260245ffd5b6111b18261116b565b810181811067ffffffffffffffff821117156111d0576111cf61117b565b5b80604052505050565b5f6111e2611152565b90506111ee82826111a8565b919050565b5f67ffffffffffffffff82111561120d5761120c61117b565b5b6112168261116b565b9050602081019050919050565b828183375f83830152505050565b5f61124361123e846111f3565b6111d9565b90508281526020810184848401111561125f5761125e611167565b5b61126a848285611223565b509392505050565b5f82601f83011261128657611285611163565b5b8135611296848260208601611231565b91505092915050565b5f73ffffffffffffffffffffffffffffffffffffffff82169050919050565b5f6112c88261129f565b9050919050565b6112d8816112be565b81146112e2575f80fd5b50565b5f813590506112f3816112cf565b92915050565b5f805f606084860312156113105761130f61115b565b5b5f84013567ffffffffffffffff81111561132d5761132c61115f565b5b61133986828701611272565b935050602084013567ffffffffffffffff81111561135a5761135961115f565b5b61136686828701611272565b9250506040611377868287016112e5565b9150509250925092565b5f819050919050565b61139381611381565b811461139d575f80fd5b50565b5f813590506113ae8161138a565b92915050565b5f602082840312156113c9576113c861115b565b5b5f6113d6848285016113a0565b91505092915050565b5f81519050919050565b5f82825260208201905092915050565b5f5b838110156114165780820151818401526020810190506113fb565b5f8484015250505050565b5f61142b826113df565b61143581856113e9565b93506114458185602086016113f9565b61144e8161116b565b840191505092915050565b61146281611381565b82525050565b611471816112be565b82525050565b5f60e083015f8301518482035f8601526114918282611421565b915050602083015184820360208601526114ab8282611421565b91505060408301516114c06040860182611459565b5060608301516114d36060860182611459565b5060808301516114e66080860182611459565b5060a08301516114f960a0860182611468565b5060c083015161150c60c0860182611468565b508091505092915050565b5f6020820190508181035f83015261152f8184611477565b905092915050565b5f806040838503121561154d5761154c61115b565b5b5f61155a858286016113a0565b925050602061156b858286016113a0565b9150509250929050565b5f82825260208201905092915050565b5f61158f826113df565b6115998185611575565b93506115a98185602086016113f9565b6115b28161116b565b840191505092915050565b6115c681611381565b82525050565b6115d5816112be565b82525050565b5f60e0820190508181035f8301526115f3818a611585565b905081810360208301526116078189611585565b905061161660408301886115bd565b61162360608301876115bd565b61163060808301866115bd565b61163d60a08301856115cc565b61164a60c08301846115cc565b98975050505050505050565b5f6020820190506116695f8301846115bd565b92915050565b5f81519050919050565b5f82825260208201905092915050565b5f819050602082019050919050565b5f60e083015f8301518482035f8601526116b28282611421565b915050602083015184820360208601526116cc8282611421565b91505060408301516116e16040860182611459565b5060608301516116f46060860182611459565b5060808301516117076080860182611459565b5060a083015161171a60a0860182611468565b5060c083015161172d60c0860182611468565b508091505092915050565b5f6117438383611698565b905092915050565b5f602082019050919050565b5f6117618261166f565b61176b8185611679565b93508360208202850161177d85611689565b805f5b858110156117b857848403895281516117998582611738565b94506117a48361174b565b925060208a01995050600181019050611780565b50829750879550505050505092915050565b5f6020820190508181035f8301526117e28184611757565b905092915050565b7f4e487b71000000000000000000000000000000000000000000000000000000005f52601160045260245ffd5b5f61182182611381565b91507fffffffffffffffffffffffffffffffffffffffffffffffffffffffffffffffff8203611853576118526117ea565b5b600182019050919050565b7f4e487b71000000000000000000000000000000000000000000000000000000005f52602260045260245ffd5b5f60028204905060018216806118a257607f821691505b6020821081036118b5576118b461185e565b5b50919050565b5f819050815f5260205f209050919050565b5f6020601f8301049050919050565b5f82821b905092915050565b5f600883026119177fffffffffffffffffffffffffffffffffffffffffffffffffffffffffffffffff826118dc565b61192186836118dc565b95508019841693508086168417925050509392505050565b5f819050919050565b5f61195c61195761195284611381565b611939565b611381565b9050919050565b5f819050919050565b61197583611942565b61198961198182611963565b8484546118e8565b825550505050565b5f90565b61199d611991565b6119a881848461196c565b505050565b5b818110156119cb576119c05f82611995565b6001810190506119ae565b5050565b601f821115611a10576119e1816118bb565b6119ea846118cd565b810160208510156119f9578190505b611a0d611a05856118cd565b8301826119ad565b50505b505050565b5f82821c905092915050565b5f611a305f1984600802611a15565b1980831691505092915050565b5f611a488383611a21565b9150826002028217905092915050565b611a61826113df565b67ffffffffffffffff811115611a7a57611a7961117b565b5b611a84825461188b565b611a8f8282856119cf565b5f60209050601f831160018114611ac0575f8415611aae578287015190505b611ab88582611a3d565b865550611b1f565b601f198416611ace866118bb565b5f5b82811015611af557848901518255600182019150602085019450602081019050611ad0565b86831015611b125784890151611b0e601f891682611a21565b8355505b6001600288020188555050505b505050505050565b5f611b3182611381565b9150611b3c83611381565b9250828203905081811115611b5457611b536117ea565b5b92915050565b7f496e76616c696420486f757365204944000000000000000000000000000000005f82015250565b5f611b8e601083611575565b9150611b9982611b5a565b602082019050919050565b5f6020820190508181035f830152611bbb81611b82565b9050919050565b7f4e487b71000000000000000000000000000000000000000000000000000000005f52603260045260245ffd5b7f496e76616c696420756e69747320746f206275790000000000000000000000005f82015250565b5f611c23601483611575565b9150611c2e82611bef565b602082019050919050565b5f6020820190508181035f830152611c5081611c17565b9050919050565b7f477269642073746174696f6e2061646472657373206e6f7420736574000000005f82015250565b5f611c8b601c83611575565b9150611c9682611c57565b602082019050919050565b5f6020820190508181035f830152611cb881611c7f565b9050919050565b5f81519050611ccd8161138a565b92915050565b5f60208284031215611ce857611ce761115b565b5b5f611cf584828501611cbf565b91505092915050565b5f611d0882611381565b9150611d1383611381565b9250828202611d2181611381565b91508282048414831517611d3857611d376117ea565b5b5092915050565b7f496e76616c696420756e69747320746f2073656c6c00000000000000000000005f82015250565b5f611d73601583611575565b9150611d7e82611d3f565b602082019050919050565b5f6020820190508181035f830152611da081611d67565b905091905056fea2646970667358221220dd34b051f4f6567a639dc4db55a78a4a65e448c2a54487d1837c19a47d40046264736f6c63430008150033",
  "immutableReferences": {},
  "source": "// SPDX-License-Identifier: MIT\r\npragma solidity ^0.8.0;\r\n\r\nimport \"./GridStation.sol\";\r\n\r\ncontract House {\r\n    struct HouseInfo {\r\n        string houseName;\r\n        string houseAddress;\r\n        uint256 houseId;\r\n        uint256 energyProduction;\r\n        uint256 energyConsumption;\r\n        address houseOwner;\r\n        address gridStation;\r\n    }\r\n\r\n    constructor() payable {}\r\n\r\n    receive() external payable {}\r\n\r\n    mapping(uint256 => HouseInfo) public houses;\r\n    uint256 public houseCount = 0;\r\n\r\n    // Event to emit when energy is bought or sold\r\n    event EnergyTransaction(\r\n        address indexed from,\r\n        address indexed to,\r\n        uint256 units\r\n    );\r\n\r\n    modifier checkEnergyBalance(uint256 _houseId) {\r\n        uint256 production = houses[_houseId].energyProduction;\r\n        uint256 consumption = houses[_houseId].energyConsumption;\r\n        if (consumption > production) {\r\n            uint256 unitsToBuy = consumption - production;\r\n            buyFromGrid(_houseId, unitsToBuy);\r\n        }\r\n        if (production > consumption) {\r\n            uint256 unitsToSell = production - consumption;\r\n            sellToGrid(_houseId, unitsToSell);\r\n        }\r\n        _;\r\n    }\r\n\r\n    // Method to add a new house\r\n    function addHouse(\r\n        string memory _houseName,\r\n        string memory _houseAddress,\r\n        address _gridStation\r\n    ) external {\r\n        houseCount++;\r\n        houses[houseCount] = HouseInfo(\r\n            _houseName,\r\n            _houseAddress,\r\n            houseCount,\r\n            0,\r\n            0,\r\n            msg.sender,\r\n            _gridStation\r\n        );\r\n    }\r\n\r\n    // Method to get all houses\r\n    function getAllHouses() external view returns (HouseInfo[] memory) {\r\n        HouseInfo[] memory allHouses = new HouseInfo[](houseCount);\r\n        for (uint256 i = 1; i <= houseCount; i++) {\r\n            allHouses[i - 1] = houses[i - 1];\r\n        }\r\n        return allHouses;\r\n    }\r\n\r\n    // Method to get house by ID\r\n    function getHouseById(\r\n        uint256 _houseId\r\n    ) external view returns (HouseInfo memory) {\r\n        return houses[_houseId];\r\n    }\r\n\r\n    // Method to update energy production for a house\r\n    function updateEnergyProduction(\r\n        uint256 _houseId,\r\n        uint256 _newProduction\r\n    ) external checkEnergyBalance(_houseId) {\r\n        require(_houseId <= houseCount, \"Invalid House ID\");\r\n        houses[_houseId].energyProduction = _newProduction;\r\n    }\r\n\r\n    // Method to update energy consumption for a house\r\n    function updateEnergyConsumption(\r\n        uint256 _houseId,\r\n        uint256 _newConsumption\r\n    ) external checkEnergyBalance(_houseId) {\r\n        require(_houseId <= houseCount, \"Invalid House ID\");\r\n        houses[_houseId].energyConsumption = _newConsumption;\r\n    }\r\n\r\n    function buyFromGrid(uint256 _houseId, uint256 _units) internal {\r\n        require(_units > 0, \"Invalid units to buy\");\r\n        require(\r\n            houses[_houseId].gridStation != address(0),\r\n            \"Grid station address not set\"\r\n        );\r\n        address payable gridStationAddr = payable(houses[_houseId].gridStation);\r\n        GridStation gridStation = GridStation(gridStationAddr);\r\n        uint256 amount = _units * gridStation.buyUnitsFromGridPrice();\r\n        gridStation.buyUnitsFromGrid{value: amount}(_units);\r\n        emit EnergyTransaction(\r\n            msg.sender,\r\n            houses[_houseId].gridStation,\r\n            _units\r\n        );\r\n    }\r\n\r\n    // Internal method to sell units to grid station\r\n    function sellToGrid(uint256 _houseId, uint256 _units) internal {\r\n        require(_units > 0, \"Invalid units to sell\");\r\n        require(\r\n            houses[_houseId].gridStation != address(0),\r\n            \"Grid station address not set\"\r\n        );\r\n        address payable gridStationAddr = payable(houses[_houseId].gridStation);\r\n        GridStation gridStation = GridStation(gridStationAddr);\r\n        gridStation.sellUnitsToGrid(_units);\r\n        emit EnergyTransaction(\r\n            msg.sender,\r\n            houses[_houseId].gridStation,\r\n            _units\r\n        );\r\n        uint256 amount = _units * gridStation.buyUnitsFromGridPrice();\r\n        address payable houseOwner = payable(houses[_houseId].houseOwner);\r\n        houseOwner.transfer(amount);\r\n    }\r\n}\r\n",
  "sourcePath": "D:\\Freelance\\energyproject\\backend\\contracts\\House.sol",
  "compiler": {
    "name": "solc",
    "version": "0.8.21+commit.d9974bed.Emscripten.clang"
  },
  "schemaVersion": "3.4.16",
  "updatedAt": "2024-04-09T01:23:42.997Z",
  "networkType": "ethereum",
  "devdoc": {
    "kind": "dev",
    "methods": {},
    "version": 1
  },
  "userdoc": {
    "kind": "user",
    "methods": {},
    "version": 1
  }
}